:020000040800F2
:1000000000000220E91800089D0400089F04000871
:10001000A1040008A3040008A504000800000000D3
:10002000000000000000000000000000A70400081D
:10003000A904000800000000AB040008AD0400089B
:100040003919000839190008391900083919000848
:100050003919000839190008391900083919000838
:100060003919000839190008391900083919000828
:100070003919000839190008391900083919000818
:100080003919000839190008391900083919000808
:10009000B504000839190008391900083919000891
:1000A00039190008391900083919000839190008E8
:1000B00039190008391900083919000839190008D8
:1000C00039190008391900083919000839190008C8
:1000D00039190008391900083919000839190008B8
:1000E00039190008391900083919000839190008A8
:1000F0003919000839190008391900083919000898
:100100003919000839190008391900083919000887
:100110003919000839190008391900083919000877
:100120003919000839190008391900083919000867
:100130003919000839190008391900083919000857
:100140003919000839190008391900083919000847
:100150003919000839190008391900083919000837
:100160003919000839190008391900083919000827
:100170003919000839190008391900080000000071
:080180003919000839190008C3
:1001880053B94AB9002908BF00281CBF4FF0FF31F6
:100198004FF0FF3000F00CB8ADF1080C6DE904CE5B
:1001A80001F0F4FBDDF804E0DDE9022304B0704758
:1001B800704700BF0348044B834202D0034B03B18E
:1001C800184770470C0000200C00002000000000B9
:1001D8000548064B1B1AD90F01EBA301491002D0A1
:1001E800034B03B1184770470C0000200C00002097
:1001F8000000000010B5064C237843B9FFF7DAFF7A
:10020800044B13B10448AFF300800123237010BDE1
:100218000C000020000000008C1C000808B5054BED
:100228001BB105490548AFF30080BDE80840FFF75A
:10023800CFBF00BF00000000100000208C1C000889
:100248002DE9F0418AB005AD002405940694079481
:10025800089409940194254B1A6B42F001021A6321
:100268001A6B02F001020192019A02941A6B42F091
:1002780002021A631A6B02F002020292029A0394B3
:100288001A6B42F008021A631A6B02F00802039212
:10029800039A04941A6B42F080021A631B6B03F0F2
:1002A80080030493049BDFF84C8001221021404610
:1002B80001F0DEF80E4F01221146384601F0D8F859
:1002C800102305930126069607940894294640466C
:1002D80000F0D8FF059606960794089429463846F4
:1002E80000F0D0FF0AB0BDE8F08100BF003802403E
:1002F800000402400000024072B6FEE708B50D484F
:100308000D4B03600723436000238360C3604FF4F1
:10031800803202614FF4001242610376437683769D
:10032800C3760377437700F05BF900B908BDFFF7A0
:10033800E3FF00BF740000200064004008B50A48CD
:100348000A4B03604FF4E133436000238360C360CA
:1003580003610C2242618361C36101F003FA00B9B1
:1003680008BDFFF7C9FF00BF2C00002000100140A6
:1003780010B594B008AC30220021204601F0D9FA1B
:100388000023039304930593069307930193204A4C
:10039800116C41F080511164126C02F0805201928C
:1003A800019A02931B4B1A6842F480421A601B6838
:1003B80003F480430293029B012308934FF4803394
:1003C800099302230E934FF480020F920622109293
:1003D800A8221192129304231393204600F02CFCB8
:1003E80090B90F23039302230493002305934FF43A
:1003F800A05306934FF480530793052103A800F0F8
:100408006BFE18B914B010BDFFF776FFFFF774FF45
:10041800003802400070004008B501F0D1F8FFF73D
:10042800A7FFFFF70DFFFFF769FFFFF787FF164CE0
:10043800204600F017FA01221021144801F018F89C
:100448000021204601F0BEF90BE0323080B2104B9B
:10045800188000231A46194601F01AFA322001F0D2
:10046800DBF80B4B1888B0F57A7FEED3084B188869
:10047800323880B2188000231A46194601F008FA6B
:10048800322001F0C9F8F1E774000020001C024096
:1004980028000020FEE7FEE7FEE7FEE7FEE77047DC
:1004A8007047704708B501F0A5F808BD08B50248BF
:1004B80000F09AFA08BD00BF7400002082B0002145
:1004C80000910B4B5A6C42F480425A645A6C02F405
:1004D80080420092009A01911A6C42F080521A648C
:1004E8001B6C03F080530193019B02B0704700BF5F
:1004F8000038024010B588B0002303930493059395
:10050800069307930268184B9A4201D008B010BDB1
:100518000024019403F5EA331A6C42F000721A645D
:100528001A6C02F000720192019A02941A6B42F05E
:1005380008021A631B6B03F008030293029B032350
:1005480003930222049206930923079303A90748F9
:1005580000F098FE22462146142000F0E3FF142004
:1005680000F0F0FFD2E700BF00640040000C02403A
:1005780000B589B00023039304930593069307936A
:10058800026803F1804303F588339A4202D009B028
:100598005DF804FB0021019103F594335A6C42F095
:1005A80010025A645A6C02F010020192019A0291E8
:1005B8001A6B42F002021A631B6B03F002030293E8
:1005C800029BC02303930223049303230693072368
:1005D800079303A9014800F055FED8E7000402403C
:1005E800002800F0A18038B5044690F82030D3B137
:1005F8002268136843F00103136001F007F8054609
:1006080023685A6812F0010F10D100F0FFFF401B59
:100618000A28F5D9636A43F400336362052384F832
:100628002030012038BDFFF765FFE1E71A6822F0A6
:1006380002021A6000F0EAFF054623685A6812F0C1
:10064800020F0DD000F0E2FF401B0A28F5D9636ABB
:1006580043F400336362052384F820300120E1E786
:10066800227E012A3DD01A6822F080021A60637E39
:10067800012B3BD02268136823F040031360A37E4C
:10068800012B39D02268136823F020031360E37E1E
:10069800012B37D02268136843F010031360237FBF
:1006A800012B35D02268136823F008031360637F99
:1006B800012B33D02268136823F004031360A36866
:1006C800E268134322691343626913436268013A7B
:1006D80021681343CB6100206062012384F8203035
:1006E800A0E71A6842F080021A60C0E7226813681F
:1006F80043F040031360C2E72268136843F0200305
:100708001360C4E72268136823F010031360C6E778
:100718002268136843F008031360C8E72268136867
:1007280043F004031360CAE70120704790F82030B3
:10073800013BDBB2012B05D9436A43F480234362B2
:100748000120704730B5464BD3F8002242F0010231
:10075800C3F80022D3F8002222F47C52C3F8002206
:10076800D3F80022486A42EA0022C3F800224A6904
:1007780002F01F02012000FA02F2D3F81C026FEA0D
:10078800020C20EA0200C3F81C02CB69C3B9344B3F
:10079800D3F80C020CEA0000C3F80C028C884869F4
:1007A800CD6844EA0544483043F830408C680888EE
:1007B80040EA04404C6904F1480E03EBCE0358604C
:1007C800CB69012B1ED08B69002B33D12448D0F87C
:1007D80004320CEA0303C0F804320B698BBB2048CF
:1007E800D0F814320CEA0303C0F814320B6A012B58
:1007F8002ED01B4AD2F8003223F00103C2F800328F
:10080800002030BD164BD3F80C021043C3F80C027D
:100818008C8848690D6844EA0544483043F83040FC
:1008280088894C698D6840EA0540483403EBC40365
:100838005860C8E70A48D0F804321343C0F80432B5
:10084800CBE70748D0F814321343C0F81432CDE789
:100858000349D1F81C321343C1F81C32C9E700BF61
:100868000064004070B5044690F82030012B06D093
:10087800436A43F4002343620126304670BDDEB26A
:10088800022380F820300268136823F00103136004
:1008980000F0BCFE054623685B6813F0010F0CD01E
:1008A80000F0B4FE431B0A2BF5D9636A43F4003306
:1008B8006362052384F82030DFE700266662DCE700
:1008C80030B590F820C00468A4680CF1FF3C5FFACA
:1008D8008CFCBCF1010F62D814F0E05F59D0C4F36E
:1008E800016C012404FA0CF41C608B68002B3DD1C8
:1008F8000D68CB68046843EA45550CF118031B01E1
:10090800E55003680C690CF1180E03EB0E135C60DC
:100918000B7D012B35D0D17993791B0443EA016310
:10092800517943EA012314790168234301EB0C113F
:10093800C1F88C31D17893781B0443EA016351786C
:1009480043EA0123117802680B4302EB0C12C2F848
:10095800883102680CF1180C4FEA0C1C52F80C3064
:1009680043F0010342F80C3000201DE04C6843EAD4
:10097800C403CC6823430CF11804240105682B51E7
:10098800BFE7036803EB0E13596841F4807159609F
:10099800C1E7436A43F400134362012004E0436A59
:1009A80043F480234362012030BD90F82030013B9E
:1009B800DBB2012B05D9436A43F48023436201204B
:1009C8007047026853690B435361002070477047B2
:1009D8007047704770477047704770477047704757
:1009E80070477047704770472DE9F84F0546036810
:1009F8005C69D3F804809F68D3F80CA0D3F81090F2
:100A0800D3F818B014F001063BD017F0010616D041
:100A180001229A6017F0020F08D117F0040F0CD1C9
:100A280017F0080606D04FF4805608E0FFF7CFFF0E
:100A3800002604E0FFF7CEFF01E04FF4006617F44C
:100A4800807F0DD02B684FF480729A6017F4007F76
:100A580040F0968017F4806F00F0968046F40056B8
:100A680017F4803F0DD02B684FF480329A6017F44A
:100A7800003F40F0938017F4802F00F0938046F4F5
:100A8800004614F0080F07D01AF0100F04D046F4EF
:100A980000762B681022DA6014F0040F03D01AF0E5
:100AA800080F40F0898014F0020F05D02B68DB682E
:100AB80013F0030F40F0878014F0400F07D019F0AF
:100AC800100F04D046F480662B6810221A6114F0C7
:100AD800200F02D019F0080F79D114F0100F04D0AC
:100AE8002B681B6913F0030F78D114F4003F02D070
:100AF80018F0100F76D114F4803F02D018F0080FC8
:100B080077D114F4004F37D018F0040F31D014F413
:100B1800807F04D01BF0010F01D046F0010614F4C9
:100B2800007F04D01BF0020F01D046F0020614F437
:100B3800806F04D01BF0040F01D046F0040614F4B3
:100B4800006F16D01BF0700B13D0BBF1400F66D0AE
:100B580056D8BBF1200F5CD0BBF1300F5CD0BBF195
:100B6800100F01D146F008062A68936923F0700334
:100B780093612B6804225A60002E56D1BDE8F88F85
:100B88002846FFF725FF6BE717F4006F02D046F4FD
:100B9800804665E72846FFF71EFF61E72846FFF70E
:100BA80018FF6EE717F4002F02D046F4803668E786
:100BB8002846FFF711FF64E72B680822DA60284609
:100BC800FFF70CFF6FE72846FFF707FF74E72B686E
:100BD80008221A612846FFF703FF7EE72846FFF739
:100BE800FEFE82E72B6810225A602846FFF7F9FEBE
:100BF80081E72B6808225A602846FFF7F3FE80E752
:100C0800BBF1500F0ED0BBF1600FADD146F480762A
:100C1800AAE746F01006A7E746F02006A4E746F044
:100C28004006A1E746F080069EE76B6A33436B6295
:100C38002846FFF7D8FEA1E7002800F0E08170B54C
:100C480082B00446036813F0010F3BD09F4B9B68AA
:100C580003F00C03042B2CD09C4B9B6803F00C0373
:100C6800082B21D06368B3F5803F4FD0B3F5A02F90
:100C780052D0964B1A6822F480321A601A6822F40D
:100C880080221A606368002B50D000F0BFFC054634
:100C98008E4B1B6813F4003F14D100F0B7FC401BC7
:100CA8006428F5D90320B1E1884B5B6813F4800F01
:100CB800D8D0864B1B6813F4003F03D06368002B21
:100CC80000F09F81236813F0020F54D07F4B9B687C
:100CD80013F00C0F3ED07D4B9B6803F00C03082BE0
:100CE80033D0E368002B68D0794B01221A6000F0FA
:100CF8008DFC0546754B1B6813F0020F54D100F0AC
:100D080085FC401B0228F5D903207FE16F4A136850
:100D180043F480331360B5E76C4B1A6842F48022C1
:100D28001A601A6842F480321A60ABE700F06EFC71
:100D38000546664B1B6813F4003FC3D000F066FC01
:100D4800401B6428F5D9032060E1604B5B6813F40D
:100D5800800FC6D15D4B1B6813F0020F03D0E36808
:100D6800012B40F05081594A136823F0F803216998
:100D780043EAC1031360236813F0080F42D0636984
:100D88006BB3534B0122C3F8802E00F03FFC05469D
:100D98004E4B5B6F13F0020F34D100F037FC401B51
:100DA8000228F5D9032031E1484A136823F0F803F3
:100DB800216943EAC1031360DDE7454B00221A604D
:100DC80000F024FC0546414B1B6813F0020FD2D0FB
:100DD80000F01CFC401B0228F5D9032016E13C4B0F
:100DE8000022C3F8802E00F011FC0546374B5B6FDC
:100DF80013F0020F06D000F009FC401B0228F5D9B9
:100E0800032003E1236813F0040F77D02F4B1B6CEA
:100E180013F0805F33D1002301932C4B1A6C42F0FE
:100E280080521A641B6C03F080530193019B0125C7
:100E3800284B1B6813F4807F23D0A368012B34D080
:100E4800052B38D0214B1A6F22F001021A671A6F4E
:100E580022F004021A67A368002B3DD000F0D6FBED
:100E680006461A4B1B6F13F0020F46D100F0CEFB5B
:100E7800801B41F288339842F3D90320C6E000254D
:100E8800D6E7144A136843F48073136000F0BEFB7E
:100E98000646104B1B6813F4807FCED100F0B6FBDA
:100EA800801B0228F5D90320B0E0084A136F43F0ED
:100EB80001031367CFE7054B1A6F42F004021A6764
:100EC8001A6F42F001021A67C5E700BF00380240F6
:100ED800000047420070004000F098FB0646524B65
:100EE8001B6F13F0020F08D000F090FB801B41F23B
:100EF80088339842F3D9032088E0EDB9A369002B21
:100F080000F08380484A926802F00C02082A51D007
:100F1800022B17D0454B00221A6600F077FB0446D7
:100F2800414B1B6813F0007F42D000F06FFB001BA1
:100F38000228F5D9032069E03B4A136C23F080535B
:100F48001364DBE7394B00221A6600F05FFB0546A5
:100F5800354B1B6813F0007F06D000F057FB401B91
:100F68000228F5D9032051E0E369226A1343626A33
:100F780043EA8213A26A5208013A43EA0243E26A48
:100F880043EA0263284A5360284B01221A6600F09C
:100F98003DFB0446244B1B6813F0007F06D100F08C
:100FA80035FB001B0228F5D903202FE000202DE097
:100FB80000202BE0012B2BD01B4B5B6803F4800136
:100FC800E269914226D103F03F02216A8A4223D185
:100FD800616A47F6C0721A40B2EB811F1ED103F452
:100FE8004031A26A5208013AB1EB024F18D103F01E
:100FF8007063E26AB3EB026F14D1002006E00120AF
:101008007047012002E0012000E0002002B070BD1E
:101018000120FBE70120F9E70120F7E70120F5E7C8
:101028000120F3E70120F1E70038024000004742C1
:1010380008B5264B9B6803F00C03042B41D0082B02
:1010480041D1224B5A6802F03F025B6813F4800FCB
:1010580012D01E4B5968C1F388111D480023A1FB0B
:101068000001FFF78DF8194B5B68C3F301430133A7
:101078005B00B0FBF3F008BD144B5868C0F3881050
:101088004FEA401CBCEB000C6EEB0E0E4FEA8E13C1
:1010980043EA9C634FEA8C11B1EB0C0163EB0E033E
:1010A800DB0043EA5173C90011EB000C43F1000364
:1010B800990200234FEA8C2041EA9C51FFF760F81F
:1010C800D1E70348D7E70348D5E700BF0038024017
:1010D800001BB7000024F400002800F09B8070B5C6
:1010E8000D4604464F4B1B6803F007038B4208D29A
:1010F800CBB24C4A1370136803F007038B4240F0DD
:101108008B80236813F0020F17D013F0040F04D05C
:10111800454A936843F4E0539360236813F0080F3B
:1011280004D0414A936843F4604393603E4A93680D
:1011380023F0F003A1680B439360236813F0010FB9
:1011480032D06368012B21D09A1E012A25D9364A4C
:10115800126812F0020F61D033498A6822F0030244
:1011680013438B6000F052FA06462F4B9B6803F03E
:101178000C036268B3EB820F16D000F047FA801BAD
:1011880041F288339842F0D9032042E0264A126897
:1011980012F4003FE0D101203BE0234A126812F02C
:1011A800007FD9D1012034E01E4B1B6803F00703F0
:1011B800AB4207D9EAB21B4B1A701B6803F007034E
:1011C800AB422DD1236813F0040F06D0164A93685A
:1011D80023F4E053E1680B439360236813F0080F8E
:1011E80007D0114A936823F46043216943EAC10395
:1011F8009360FFF71DFF0C4B9B68C3F303130B4A67
:10120800D35CD8400A4B18600A4B186800F0B2F952
:10121800002070BD012070470120FAE70120F8E79F
:101228000120F6E7003C024000380240AC1C0008F0
:101238000800002004000020014B1868704700BF18
:101248000800002008B5FFF7F7FF044B9B68C3F3BD
:101258008223034AD35CD84008BD00BF003802404F
:10126800A41C000808B5FFF7E7FF044B9B68C3F30D
:101278004233034AD35CD84008BD00BF003802405F
:10128800A41C000800230F2B00F2E98070B582B07F
:1012980065E085684FEA430E032404FA0EF425EA54
:1012A8000405CC6804FA0EF42C438460446824EAEC
:1012B80002044A68C2F300129A40224342605CE08A
:1012C800DC08083450F8242003F00705AD004FF07F
:1012D8000F0E0EFA05FE22EA0E0E0A69AA4042EA2D
:1012E8000E0240F824205CE0072200E0002202FA07
:1012F8000EF22A4302345A4D45F82420594A94687C
:101308006FEA0C0224EA0C054E6816F4801F01D01F
:101318004CEA0405534CA560E46802EA04054E68EB
:1013280016F4001F01D04CEA04054E4CE5606468D1
:1013380002EA04054E6816F4003F01D04CEA0405A1
:10134800484C6560246822404D6815F4803F01D000
:101358004CEA0402434C226001330F2B7DD8012252
:101368009A400C6804EA020C32EA0404F4D14C688E
:1013780004F00304013C012C8BD94A6802F00302F3
:10138800032A09D0C4685D000322AA4024EA0204A3
:101398008A68AA402243C2604A6802F00302022A0D
:1013A8008ED004684FEA430E032202FA0EF224EAB2
:1013B80002044A6802F0030202FA0EF222430260B3
:1013C8004A6812F4403FC7D000220192264A546C62
:1013D80044F480445464526C02F480420192019AAD
:1013E8009C08A51C1E4A52F8255003F0030E4FEA2C
:1013F8008E0E0F2202FA0EF225EA02051B4A9042CF
:101408003FF474AF02F5806290421AD002F5806210
:10141800904218D002F58062904216D002F58062A0
:10142800904214D002F58062904212D002F5806298
:10143800904210D002F5806290423FF455AF0822E6
:1014480055E7012253E7022251E703224FE704221E
:101458004DE705224BE7062249E702B070BD704709
:1014680000380140003C01400038024000000240C2
:101478000AB181617047090481617047002807DB60
:1014880000F01F02400901239340024A42F820302D
:10149800704700BF00E100E0002808DB0901C9B27D
:1014A80000F1604000F5614080F80013704700F0DB
:1014B8000F000901C9B2014B1954704714ED00E03F
:1014C80000B500F00700C0F1070CBCF1040F28BFFD
:1014D8004FF0040C031D062B0FD9C31E4FF0FF3E1F
:1014E8000EFA0CF021EA000199400EFA03FE22EAF6
:1014F8000E0241EA02005DF804FB0023EEE700005B
:10150800074AD36823F4E0631B041B0C000200F4B1
:10151800E060034343F0BF6343F40033D360704794
:1015280000ED00E010B50446054BD868C0F3022072
:10153800FFF7C6FF01462046FFF7AEFF10BD00BF0C
:1015480000ED00E008B5FFF799FF08BD0138B0F1DC
:10155800807F0BD24FF0E0235861054AF02182F8D2
:1015680023100020986107221A61704701207047F4
:1015780000ED00E010B504460E4B1A784FF47A736C
:10158800B3FBF2F30C4A1068B0FBF3F0FFF7DEFF91
:1015980068B90F2C01D901200AE0002221464FF03A
:1015A800FF30FFF7BFFF054B1C60002000E0012063
:1015B80010BD00BF0000002008000020040000202B
:1015C80008B50B4B1A6842F400721A601A6842F4A4
:1015D80080621A601A6842F480721A600320FFF76A
:1015E8008FFF0F20FFF7C6FFFEF768FF002008BD3A
:1015F800003C0240034A1168034B1B780B441360FC
:10160800704700BF9C00002000000020014B1868B4
:10161800704700BF9C00002038B50446FFF7F6FF6E
:101628000546B4F1FF3F02D0044B1B781C44FFF77A
:10163800EDFF401BA042FAD338BD00BF00000020D8
:10164800034AD2F8883043F47003C2F888307047F0
:1016580000ED00E010B504460268136923F4405316
:10166800C1680B431361836802691A4343691A43CB
:10167800C3691A430168CB6823F4164323F00C03AB
:101688001343CB600268536923F4407381690B43A9
:1016980053610368314A934206D002F5806293424F
:1016A80002D0FFF7CFFD01E0FFF7DCFDE369B3F5FA
:1016B800004F29D00021031849411B1841F10001AE
:1016C800C90041EA5371DB00181863684FEA8302C6
:1016D8004FEA937341F10001FEF752FD204AA2FB45
:1016E80000314909642303FB11031B013233A2FBB8
:1016F80003235B0903F0F00202EB011203F00F036E
:10170800216813448B6010BD0023021843EB0301CA
:10171800121841F10001C90041EA5271D2001018B3
:1017280041F10001626892185B41FEF729FD0C4AFD
:10173800A2FB00314909642303FB1103DB003233A8
:10174800A2FB03235B095A0002F4F87202EB0112B0
:1017580003F00703216813448B60D4E700100140AD
:101768001F85EB5160B310B5044690F8413013B3B0
:10177800242384F841302268D36823F40053D360CB
:101788002046FFF767FF2268136923F4904313612B
:101798002268536923F02A0353612268D36843F40B
:1017A8000053D36000206064202384F8413084F81B
:1017B8004230606310BD80F84030FEF7D9FED7E7AD
:1017C8000120704738B584460D462B4B197079B106
:1017D8002A4B00221A602A4CBCE80F000FC4BCE850
:1017E8000F000FC49CE8030084E80300002313E003
:1017F800224B01221A60EEE703F201212148C3EBD4
:10180800C30400EB840240F8241000205060D0602C
:101818000821116190600133032BEDDD1A4B4FF461
:1018280000721A6000225A60DA60082119619A6011
:101838001A75164B012119625A611A619A61D961A8
:101848004FF4804119605A6047F6E0719960DA6098
:1018580065B102210A48FFF7A8F8094C0B49204650
:10186800FEF764FF2046FEF7FDFF38BD102104484F
:10187800FFF79BF8F1E700BFA0000020A4000020BC
:10188800A8000020F800002068010020D0000020F7
:1018980010B584B0944601AA002401945460040A47
:1018A8008DF804408DF80500080A8DF806008DF8BB
:1018B80007104FEA1C218DF808108DF809C0190A85
:1018C8008DF80A108DF80B3003AB03490348FEF777
:1018D800F7FF04B010BD00BF68010020A800002079
:1018E800DFF834D0FFF7ACFE0C480D490D4A002351
:1018F80002E0D458C4500433C4188C42F9D30A4ABD
:101908000A4C002301E013600432A242FBD300F02A
:1019180019F8FEF781FD7047000002200000002042
:101928000C000020CC1C00080C00002080010020C6
:10193800FEE702440346934200D1704703F8011BB7
:10194800F9E7000070B50D4B0D4D5B1B9C10002690
:10195800A64209D100F096F90A4D0B4B5B1B9C106F
:101968000026A64205D170BD55F8043B98470136BC
:10197800EEE755F8043B98470136F2E7C41C000827
:10198800C41C0008C41C0008C81C00082DE9F04746
:10199800089D0F4604468C46002B48D18A421646BD
:1019A80061D9B2FA82F34BB1C3F1200201FA03FC08
:1019B80020FA02F29E4042EA0C0C9C404FEA164E76
:1019C800B7B2BCFBFEF1220C0EFB11CC42EA0C4272
:1019D80001FB07F0904209D9B21801F1FF3C80F0F1
:1019E800EE80904240F2EB8002393244121AA4B2DF
:1019F800B2FBFEF00EFB102244EA024400FB07F79C
:101A0800A74209D9341900F1FF3280F0DA80A742E1
:101A180040F2D7803444023840EA0140E41B0021F8
:101A28001DB1DC400023C5E90043BDE8F0878B42C7
:101A380006D90DB1C5E9000100210846BDE8F087C7
:101A4800B3FA83F1002948D1BB4202D3824200F2A3
:101A58000781841A67EB030201209446002DE4D025
:101A6800C5E9004CE1E7002A00F09280B2FA82F35F
:101A7800002B40F0A8808A1A4FEA164E1FFA86FCFF
:101A88000121200CB2FBFEF70EFB172240EA0242AE
:101A98000CFB07F0904207D9B21807F1FF3802D2C1
:101AA800904200F2E2804746121AA4B2B2FBFEF05E
:101AB8000EFB102244EA02440CFB00FCA44507D9A3
:101AC800341900F1FF3202D2A44500F2CB8010464F
:101AD800A4EB0C0440EA0740A2E7C1F120068B40C2
:101AE80022FA06FC4CEA030C07FA01F420FA06F382
:101AF800F7404FEA1C49234300FA01F81FFA8CFE0D
:101B0800B7FBF9F01C0C09FB107744EA074400FB0B
:101B18000EF7A74202FA01F20AD91CEB040400F1FD
:101B2800FF3A80F09B80A74240F2988002386444D4
:101B3800E41B9FB2B4FBF9F309FB134447EA0444DE
:101B480003FB0EFEA64509D91CEB040403F1FF377D
:101B580080F08280A6457FD9023B644443EA004076
:101B6800A4EB0E04A0FB02E7BC427346B94663D35C
:101B780060D05DB1B8EB030264EB090404FA06F621
:101B880022FA01F31E43CC40C5E9006400214CE76A
:101B98006208480842EAC1710B0C43EA00438AB262
:101BA80042EA0342B3FBF6F1E407B4463746B646C9
:101BB8001F23B0FBF6F0D21B41EA004161E7614602
:101BC80014E7104628E7C3F1200120FA01F29E40ED
:101BD80027FA01F19F403A434FEA164E1FFA86FC56
:101BE800B1FBFEF70EFB1710110C41EA004107FB91
:101BF8000CF8884504FA03F43AD9711807F1FF3054
:101C080001D288451FD8A1EB0801B1FBFEF808FBFB
:101C18000CF70EFB181192B242EA0142BA422FD2D7
:101C2800B21808F1FF31C6D2BA42C4D2A8F10201F3
:101C38003244C0E7F0459CD2BEEB020367EB0C07C9
:101C48000138B94695E7A6EB08084144B81EB1FB30
:101C5800FEF808FB0CF7DCE73B467FE7504667E7F2
:101C68000846FBE63444023832E7023F32441BE7B9
:101C7800A1EB08013846B1FBFEF808FB0CF7C8E7F2
:101C8800414698E7F8B500BFF8BC08BC9E467047C7
:0C1C9800F8B500BFF8BC08BC9E467047C1
:101CA4000000000001020304000000000000000026
:081CB400010203040607080900
:081CBC00D8FCFF7F01000000CD
:041CC40025020008ED
:041CC800FD01000812
:0C1CCC0001000000100000000024F400E3
:04000005080018E9EE
:00000001FF
