:020000040800F2
:1000000008090020490200081F2C00083F2B0008A7
:100010001D2C0008A3150008FD3200080000000098
:10002000000000000000000000000000712F000828
:10003000B115000800000000352E0008732F0008DD
:1000400063020008630200086302000863020008FC
:1000500063020008630200086302000863020008EC
:1000600063020008630200086302000863020008DC
:1000700063020008630200086302000863020008CC
:1000800063020008630200086302000863020008BC
:10009000A515000863020008630200086302000857
:1000A000630200086302000863020008630200089C
:1000B000630200086302000863020008630200088C
:1000C000630200086302000863020008630200087C
:1000D00063020008F13200086302000863020008AE
:1000E000630200086302000863020008630200085C
:1000F000630200086302000863020008630200084C
:10010000630200086302000863020008630200083B
:10011000630200086302000863020008630200082B
:10012000630200086302000863020008630200081B
:10013000630200086302000863020008630200080B
:1001400063020008630200086302000863020008FB
:1001500063020008630200086302000863020008EB
:1001600063020008630200086302000863020008DB
:100170006302000863020008630200080000000038
:10018000630200086302000800F002F800F04CF877
:100190000AA090E8000C82448344AAF10107DA45E2
:1001A00001D100F041F8AFF2090EBAE80F0013F0E8
:1001B000010F18BFFB1A43F001031847A8360000CF
:1001C000C8360000103A24BF78C878C1FAD8520760
:1001D00024BF30C830C144BF04680C6070470000C1
:1001E0000023002400250026103A28BF78C1FBD840
:1001F000520728BF30C148BF0B607047662903F023
:10020000CB82642900F0CC80002070471FB503F03A
:10021000BEFA00F089FC04000020002103F0FAF986
:10022000E0601FBD10B510BD00F07EFD1146FFF768
:10023000EDFF03F0AFF800F09CFD03B4FFF7F2FF11
:1002400003BC00F0DFFD0000094880470948004773
:10025000FEE7FEE7FEE7FEE7FEE7FEE7FEE7FEE776
:10026000FEE7FEE704480549054A064B70470000D3
:100270000D3000088901000808030020080900204B
:10028000080500200805002053EA020C00F06980F0
:100290002DE9F04B4FF00006002B1FBFB3FA83F59A
:1002A00003FA05F424FA05F65E4012BF1643B2FACB
:1002B00082F502FA05F4C5F120051EBF22FA05FCFD
:1002C00044EA0C04203556EA044C4FEA144418BFA3
:1002D000641C4FF000084FF00009904271EB030CD2
:1002E00039D3002919BFB1FA81F701FA07F6B0FA3C
:1002F00080F700FA07F6C7F120071EBF20FA07FCB7
:1003000046EA0C062037B6FBF4FCA7EB0507103FC6
:1003100007F01F0BCBF120060CFA0BFB2CFA06F6AC
:1003200044BFB3460026202FA4BF5E464FF0000B0B
:100330005BEA060C08BF4FF0010B19EB0B09ABFB96
:10034000027C48EB0608C01B06FB02CC0BFB03CC6F
:1003500071EB0C01C1E70B46024641464846BDE839
:10036000F08B13B54FF000004FF00001AFF30080A9
:10037000BDE81C40704700000FB41CB5074B06AA2F
:100380007B4469460090059800F0B5FB0020694663
:1003900000F0C4FB1CBC5DF814FB000099070000D2
:1003A0002DE9F0410646002410687529314616A54E
:1003B00010D0AFF30080002802DA404213A507E016
:1003C00031688A0701D512A502E0490704D511A5B5
:1003D000012401E0AFF3008000210A2206F1240786
:1003E00009E0B0FBF2FCB0FBF2F302FB1C00303082
:1003F00078541846491C0028F3D123462A46304633
:10040000BDE8F04100F00AB9000000002D00000036
:100410002B000000200000002DE9F0474FF0000AFB
:1004200089460446C0F820A02046E1688847002895
:1004300076D0252806D0D4E901219047206A401CB7
:100440002062F1E7E168204600258847C4F81CA037
:1004500006460027C4F818A02A2E09D0304602F01C
:1004600076FF38B304EB8708303EC8F8186019E00F
:1004700059F8041B204604EB87029161E168884724
:10048000012F064618D1E069002820DA25F0200562
:100490001DE0D8F8180000EB800006EB4000303873
:1004A000C8F818002046E1688847064602F04FFF6A
:1004B0000028EED1012F0AD02E2E08D12046E16867
:1004C00088477F1C0646022F45F02005C4DBA06943
:1004D000002803DA404245F00105A061E80701D099
:1004E00025F01005B6B1A6F14100192802D8203632
:1004F00045F400654A463146204625604D46FFF7E3
:100500007DFE58B1012806D0ED1D25F0070000F151
:10051000080989E704E005F1040985E730468AE720
:10052000206ABDE8F08710B5431C02E010F8011BFB
:1005300071B18107FAD14FF0013202C88C1A8C4395
:1005400014EAC211F9D0C01A0A0603D0C01E10BDA9
:10055000C01A10BD0A0401D0801E10BD0902FCD0D3
:10056000401E10BD10B5203AC0F00B80B1E8185005
:10057000203AA0E81850B1E81850A0E81850BFF48D
:10058000F5AF5FEA027C24BFB1E81850A0E818502C
:1005900044BF18C918C0BDE810405FEA827C24BF80
:1005A00051F8043B40F8043B08BF7047D20728BF0E
:1005B00031F8023B48BF11F8012B28BF20F8023B5D
:1005C00048BF00F8012B70474FF0000200B51346FA
:1005D00094469646203922BFA0E80C50A0E80C5063
:1005E000B1F12001BFF4F7AF090728BFA0E80C5014
:1005F00048BF0CC05DF804EB890028BF40F8042B0D
:1006000008BF704748BF20F8022B11F0804F18BF79
:1006100000F8012B70477047704770472DE9F0478D
:100620000D4699469246044600F124080168880662
:1006300004D5E06921F01001216000E00120A8420A
:1006400001DD471B00E00027A1697A1902EB0900D0
:10065000081AA0612078C00602D42046AFF30080BB
:10066000002608E0D4E901211AF806009047206A24
:10067000401C761C20624E45F4DB2078C0060AD56B
:100680002046AFF3008006E0D4E9012130209047F6
:10069000206A401C2062381EA7F10107F4DC07E045
:1006A000D4E9012118F805009047206A401C206217
:1006B000281EA5F10105F3DC2046AFF30080207869
:1006C000000602D50220BDE8F0870120FBE7704755
:1006D0002DE9FF4F0C461E464FF0FF378BB0D2E995
:1006E0000001DDF860800A908A46C1F30A5505B919
:1006F0003D46002108464FF00000BAF1000F00F41B
:10070000400005DA00EB80004FF4400101EA5000A0
:100710004FEA9059B9F1010F00DDB9460A9850EA45
:100720004A000ED044F61050A5F2FF3545432F1471
:10073000B8F1000F1ED07542291E1EDDC9F100025E
:100740001CE0B8F1010F4FF0000001D0302103E0B0
:10075000F24305E02154401CB042FBDB304600224E
:10076000002121540B99C1F80880C1E900200FB085
:10077000BDE8F08FBD1B6D1CDEE74A4600DA69421A
:1007800006A800F05BFA06AB93E8070003AB83E82A
:10079000070050460A9900F03CFB8DE80700A0F5E1
:1007A00000501F3800900398002D0ADD42F21F010F
:1007B0004A460844002303A90390684600F0A5FDBB
:1007C00009E0A0F500504A461F38002303A9039012
:1007D000684600F0AFFD8DE807000004000C03D070
:1007E0004FF0FF30410800E01046B8F1000F03D091
:1007F0000022009215461EE0751E05D400F098F9FF
:10080000303262556D1EF9D5B3460122084302D03D
:1008100000227F1C04E02078302801D100227F1EB6
:10082000002A099784D01DE0112D07DA00F080F925
:10083000303262556D1C50EA0102F5D1084302D0F6
:100840000098C8B10EE00021681E05E0235C625CE0
:1008500063542254401E491C8142F7DBAB46A81B5F
:10086000401E0990002004F80B000B98099AC0F86C
:100870000880C0E9002B7AE711264FF0000857E7FF
:100880002DE9F04F88460446D21D22F0070191B0B1
:10089000D1E90001CDE90A0102F031FD02460B98D1
:1008A000C00F01D02D2007E02068810701D52B2043
:1008B00002E0202101EAC000032A099001D0072AA2
:1008C00005DB03464146204600F078F90BE120782D
:1008D000800601D5E06900E00620B8F1650F814689
:1008E00006D0B8F1660F18D0B8F1670F70D131E0BB
:1008F0000020B9F1110F009001DB112301E009F193
:1009000001030AAA01A90CA8FFF7E2FEDDE90C70B9
:10091000002609F10105834647E001204B4600907F
:100920004FF000470AAA01A90CA8FFF7D1FEDDE9A4
:100930000DB00C995D46002610B909F101000D18A3
:10094000B9EB050003D4C0F1FF3609F10105A5EBB1
:1009500009002BE0B9F1010F01DA4FF00109002085
:10096000B9F1110F0090484601DD112300E0034664
:100970000AAA01A90CA8FFF7ABFEDDE90C704D46F1
:1009800000268346207800070AD4AB4500DA5D468E
:1009900001A8012D04DD411911F8011C302907D0EF
:1009A0004F4502DA17F1040F04DA012082460FE006
:1009B0006D1EEEE7002F02DCED1B3E4403E0781CC9
:1009C000A84200DD7D1CB81B00F1010A4FF0004772
:1009D0002078000703D4AA4501DB4FF0FF3A00213D
:1009E000B7F1004F0DF143088DF8431024D00220D9
:1009F0002B23002F01DA7F422D230A21021EA0F1B2
:100A0000010000DC5FB197FBF1FC97FBF1F201FB09
:100A10001C7C17460CF1300C08F801CDEEE7A8F16C
:100A2000010003702188090501D5452100E06521F9
:100A3000A0F1010800F8011C09980FA9A1EB080713
:100A4000FF1D00B10120411901EBEA70A169384492
:100A5000081A401EA0612078C00602D42046AFF3D9
:100A60000080099828B1D4E901219047206A401CF0
:100A700020622078C00622D52046AFF300801EE019
:100A8000002E04DBB34502DD01A8805D00E03020CC
:100A9000D4E901219047206A401C2062761CAAF10B
:100AA00001005FEA000A0AD100F03EF8C068016860
:100AB000405CD4E901219047206A401C2062281E36
:100AC000A5F10105DCDC07E0D4E9012118F8010BF0
:100AD0009047206A401C2062381EA7F10107F3DC12
:100AE0002046AFF30080032011B041E601694A1CA3
:100AF00002610878704700B58FB0CDE9013100215F
:100B0000059105497944CDE9031011466846FFF780
:100B100083FC0FB000BD0000E5FFFFFF0A6802F88C
:100B2000010B0A607047000000487047C8020020AF
:100B300030B5B0F10A024FEA900E71F100034EEAAF
:100B4000817EB0EB0E0061EB91014FEA101E4EEA80
:100B5000017E10EB0E0041EB11114FEA102E4EEA10
:100B6000016E10EB0E0041EB11214FEA104E4EEAE0
:100B7000014E10EB0E0041EB1141401841F1000114
:100B80004FEAD00040EA41704FEAD10110EB8005F6
:100B90004FEA810444EA907444EB01046D1944EB7C
:100BA0000404521BA3414FF0000348BF0A3200D592
:100BB00030BD401C41F1000130BD00002DE9F04185
:100BC0001F46044603260168072A01F4006004DB7F
:100BD00008B116A505E016A503E008B115A500E0CB
:100BE00015A521F010002060A069C01EA0610FB102
:100BF000401EA0612046AFF300804FB1D4E901212F
:100C000038469047206A401C2062C01C206206E0E3
:100C1000206AFAE7D4E9012115F8010B9047761E06
:100C2000F8D22046AFF30080BDE8F0814E414E007F
:100C30006E616E00494E4600696E66002DE9F04710
:100C4000814616468AB0354878440DC88DE80D00B7
:100C500032487844801C03AC0DC884E80D0041F68E
:100C60009B300844372190FBF1F290FBF1F5A5F1A0
:100C7000800501FB12041B3C02D56442012000E008
:100C80000020DFF898A080460027FA44AAF1BE0AA7
:100C90000EE0E0070AD03246684607EB4701012321
:100CA0000AEB810100F046FB8DE8070064107F1C11
:100CB000002CEED1194F7F44AE3F19E0E80715D064
:100CC00007EB04100DF1180A90E80E008AE80E00F8
:100CD000C068F04201D1981908903246012306A954
:100CE00003A800F027FB03AB83E807006D10641C2A
:100CF000002DE3D14FF0010332466946B8F1000FF1
:100D000003A802D000F001FB01E000F013FBC9E9E9
:100D10000001C9F808200AB0BDE8F087002C0000E7
:100D200000487047A80200207546FFF7F9FFAE465D
:100D300005006946534620F00700854618B020B5E7
:100D4000FFF790FABDE820404FF000064FF0000793
:100D50004FF000084FF0000B21F00701AC46ACE863
:100D6000C009ACE8C009ACE8C009ACE8C0098D46D0
:100D7000704710B50446AFF300802046BDE8104030
:100D8000FFF75BBA4FF0013C50F8042B51F8043BDD
:100D90009A4221D1A2EB0C03934313EACC1317D14F
:100DA00050F8042B51F8043B9A4215D1A2EB0C03E6
:100DB000934313EACC130BD150F8042B51F8043BA6
:100DC0009A4209D1A2EB0C03934313EACC13DBD074
:100DD0004FF00000704700BFD01A01BAB1FA81F19C
:100DE00001F0180122FA01F0CB40C1F12001DBB281
:100DF000C0B2C01A2CFA01F3D11A914311EAC311FF
:100E0000E6D1704701491820ABBEFEE7260002007C
:100E100070475FEA400C08BF91F0000F4FEA8C2347
:100E20004FEAC12243EA51514FEA1C5018BF00F566
:100E3000F0404FEA300018BF41F000415FEA6C5CBF
:100E400000F02980BCF1FF3F08BF40F080407047B0
:100E5000130C06BF12044FF0100C4FF0000C130ED1
:100E600004BF12020CF1080C130F04BF12010CF1A5
:100E7000040C930F04BF92000CF1020CD30F04BFBB
:100E800052000CF1010C11464FF00002A0F11F00BE
:100E9000A0EB0C00704711F0004F08BF704731F015
:100EA00000413FF4D5AF0B0C06BF09044FF0100C06
:100EB0004FF0000C0B0E04BF09020CF1080C0B0FD5
:100EC00004BF09010CF1040C8B0F04BF89000CF165
:100ED000020CCB0F04BF49000CF1010CCCF1200334
:100EE000A0EB0C0022FA03F302FA0CF241EA030130
:100EF00000F10100704720F07F4C80EA030023F0EE
:100F00007F47ACEB070303F57C5300F0004003F18F
:100F1000FF032DE980494FEA154B09B44FEA14430A
:100F200025EA0B4E24EA03480FF2042606EB1327AA
:100F300049083E785FEA320203FB0667C7F50007FF
:100F400007FB06F64FEA54374FEAD64606F102068B
:100F500007FB066CCCF1005C4FEA1C472CEA074CFF
:100F600007FB06F40CFB06F504EB15464FEA961654
:100F700034BF00204FF000404FEAD13706FB07FC9A
:100F80004FEA1C4C0CFB0BF7D21B03FB0CF761EB7D
:100F900007010CFB0EF7B0EB074072EB17420CFB9E
:100FA00008F734BFA2EB0742B2EB074261EB1741EF
:100FB0004FEA0C444FEA910706FB07FC4FEA1C4C32
:100FC0000CFB0BF7B0EBC74072EB573203FB0CF78F
:100FD00034BFA2EBC742B2EBC74261EB57310CFB07
:100FE0000EF7B0EBC70072EB57720CFB08F734BF7B
:100FF000A2EBC702B2EBC70261EB5771039F4FEA46
:10100000816141EA921104EBCC044FEAD1374FEAF7
:10101000826206FB07FC42EA90124FEA80604FEAC8
:101020001C4C0CFB0BF7D21B03FB0CF761EB07010D
:101030000CFB0EF7B0EB074072EB17420CFB08F706
:1010400034BFA2EB0742B2EB074261EB17414FEA14
:101050008C554FEA910704EB9C2406FB07FC4FEAF2
:101060001C4C0CFB0BF7B0EBC74072EB573203FB89
:101070000CF734BFA2EBC742B2EBC74261EB57316A
:101080000CFB0EF7B0EBC70072EB57720CFB08F7C6
:1010900034BFA2EBC702B2EBC70261EB577115EB8D
:1010A0004C254FEA816141EA92114FEA82624FEA90
:1010B000D13742EA901206FB07FC44F100044FEAE4
:1010C00080604FEA1C4C0CFB0BF7D21B03FB0CF7A8
:1010D00061EB07010CFB0EF7B0EB074072EB174218
:1010E0000CFB08F734BFA2EB0742B2EB074261EBFF
:1010F000174115EB1C154FEA813141EA92414FEA45
:10110000823242EA90424FEA80304FEA0C7644F154
:10111000000448EA03434EEA0B484FF0000EB2EBDE
:10112000080C71EB030724BF624639464EEB0E0EE6
:101130004FF0000B0018524149414BEB0B0BB2EB47
:10114000080C71EB03077BF1000B24BF62463946A4
:101150004EEB0E0E4FF0000B0018524149414BEB85
:101160000B0BB2EB080C71EB03077BF1000B24BFF8
:10117000624639464EEB0E0E51EA020718BF46F0A2
:10118000010616EB0E7655F1000254F1000103D56D
:10119000BDE88901BDE80088BDE88901BDE80048D7
:1011A000B619524141EB0101A3F101037047808060
:1011B0007F7E7D7C7B7A79787776767574737271B1
:1011C00071706F6E6E6D6C6C6B6A6A696868676669
:1011D00066656464636362616160605F5F5E5E5DFB
:1011E0005D5C5C5B5B5A5A5959585857575656556F
:1011F00055555454535352525251515050504F4FD1
:101200004F4E4E4D4D4D4C4C4C4B4B4B4A4A4A4920
:101210004949484848474747474646464545454463
:101220004444444343434342424242414141002BF0
:101230009C4630D477002BD01CB54FEA370703B457
:101240004FF010004FF01001BAF1000F06D0BCF1C2
:10125000000FDCBF40F0080040F008014FF0000034
:101260000FBCBDE810400BF1010BBBF1010F08BF33
:101270005FEA170722BF12F1010211F101014FF0DD
:10128000004143F1000300F0004043EA00007047D2
:10129000F9D35708D0E746EA064613F1400F4FEA64
:1012A00016461FDD13F1200FDFBF16430A4600214B
:1012B00020335B42BED0C3F1200746EA064602FA5D
:1012C00007F74FEA164646EA0706C3F1200722FA57
:1012D00003F201FA07F721FA03F14FF0000342EAA3
:1012E0000702A7E746EA020646EA06464FEA16461E
:1012F00046EA0106BCBF46EA0646360C4FF000033C
:101300004FF000024FF0000194E72DE9804C9A461F
:10131000934670B491E8380007C831EA400C48BFE2
:1013200034EA430C03D5FFF7E6FDFFF780FFF0BC7E
:10133000BDE8008C2DE9804C9A46934670B491E844
:10134000380007C810F0804F08BF13F0804F03D15A
:1013500000F005F8FFF76BFFF0BCBDE8008C20F053
:101360007F4780EA030023F07F4C07EB0C03A3F5D3
:101370007C5300F00040A3F1FE0392F0000F00F058
:10138000B38095F0000F00F077802DE901494FEA16
:1013900011404FEA144621EA004800FB06FC24EA0B
:1013A000064708FB06F607FB08F800FB07F718EBF3
:1013B00006484CEB164C4FEA124B18EB07484FEA25
:1013C00015464CEB174022EA0B4E0BFB06FC25EAB8
:1013D00006470EFB06F607FB0EFE0BFB07F71EEBA0
:1013E000064E4CEB164C4FF000061EEB074E4CEB36
:1013F000174B18EB0B0840F1000018EB0E0B58EBE5
:10140000000840F100008F1A4FF000013CBFC943B3
:10141000661B14BFB5EB040C00213CBFC943F61B8F
:101420004FEA17444EEA8E0E27EA04454FEA1C475E
:1014300004FB07622CEA074C05FB07F70CFB05F6DB
:1014400004FB0CFC16EB074642EB174216EB0C466E
:1014500042EB1C421BEB060658EB0202414146EAF6
:101460009E0601D5BDE80189B619524141EB010143
:10147000A3F10103BDE801894FEA14454FEA114782
:1014800024EA054621EA074C05FB07F406FB07F7AB
:101490000CFB06F105FB0CFC11EB074144EB174478
:1014A0004FEA124711EB0C4144EB1C4422EA074C73
:1014B00005FB07F206FB07F70CFB06F605FB0CFC29
:1014C00016EB074642EB174216EB0C4642EB1C4567
:1014D0006A1854F1000148BF7047B619524141EBF8
:1014E0000101A3F10103704795F0000F37D04FEAD7
:1014F00011424FEA144721EA024624EA074C02FB54
:1015000007F106FB07F70CFB06F402FB0CFC14EBDF
:10151000074441EB17414FEA154714EB0C4441EBEC
:101520001C4125EA074C02FB07F506FB07F70CFBFD
:1015300006F602FB0CFC16EB074645EB174516EBCF
:101540000C4645EB1C42121951F1000148BF70478F
:10155000B619524141EB0101A3F1010370474FEA73
:1015600014454FEA114724EA054621EA074C05FBDA
:1015700007F106FB07F70CFB06F24FF0000605FB30
:101580000CFC12EB074241EB174112EB0C4251EB02
:101590001C4148BF7047921841EB0101A3F10103C0
:1015A0007047FEE7014800F076B9000038020020DD
:1015B000704790F82020012A07D0022A05D0416AFE
:1015C00041F48021416201207047006842690A436A
:1015D000426100207047F0B590F820500468A4687C
:1015E000012D05D0022D03D0416A41F480214DE048
:1015F00014F0406F01D1E50045D5C4F30164012525
:10160000A5401D608D684FF4C0739DB1CE68354311
:101610004E6845EAC605066803EB0417F5514FF41A
:10162000C275076805EB04150E697E51097D012915
:1016300005D009E00E88CD6845EA4655EBE701681C
:101640004E5946F480764E511179D2F805504FF438
:10165000C67641EA0521056806EB0416A951117802
:10166000D2F801204FF4C47541EA0221026805EB6B
:1016700004155151006803EB0411425842F0010275
:1016800042500020F0BD416A41F400114162012046
:10169000F0BD000010B590F82020012A07D0022AE2
:1016A00005D0416A41F480214162012010BD3B48D0
:1016B000D0F8002242F00102C0F80022D0F8002247
:1016C00022F47C52C0F80022D0F800224B6A42EA91
:1016D0000322C0F800220A7D02F01F0301229A4073
:1016E000D0F81C329343C0F81C32CB69B3B9D0F8A0
:1016F0000C329343C0F80C328C894B6864F31F435F
:101700004C6900EBC404C4F840320C890B6864F3E4
:101710001F434C6900EBC404C4F84432CB69012B6D
:1017200016D1D0F80C321343C0F80C320C884B6839
:1017300064F31F434C6900EBC404C4F840320C89C5
:10174000CB6864F31F434C6900EBC404C4F8443213
:101750008B69002BD0F804320ED01343C0F804324A
:101760000B69002BD0F8143208D01343C0F81432A0
:10177000096A012904D008E09343EFE79343F5E7B2
:10178000D0F81C121143C0F81C12D0F8001221F03E
:101790000101C0F80012002010BD000000640040EC
:1017A000704770B590F82040012C05D0022C03D072
:1017B000416A41F4802128E0046809B32469A40740
:1017C00020D04FF4D874056804EB01142D5915F09E
:1017D0000405956005682D591AD0ED085560056817
:1017E0002C5904F00204D4604FF4DA74056804EB59
:1017F00001142E5906F00F06082E0CD308250DE013
:10180000E468DCE7416A41F400114162012070BDE7
:101810006D0D1560E3E72D5905F00F05156105689D
:101820002D59C5F30725956105682C59240C546181
:101830004FF4DC72046802EB0112A4581C700468B7
:10184000A458240A5C700468A458240C9C70046892
:10185000A258120EDA704FF4DE72046802EB011225
:10186000A4581C710468A458240A5C710468A45824
:10187000240C9C710468A258120EDA71006829B118
:10188000016941F020010161002070BDC16841F093
:101890002001C160F8E72DE9F05F054600680024EB
:1018A0004669D0F804908768D0F80CB0D0F810A042
:1018B000D0F81880F10748D0F90714D001218160D1
:1018C000B80703D5284600F024FA0CE0780702D5C3
:1018D0004FF4006407E0380702D54FF4805402E06B
:1018E000284600F015FAF80516D529684FF48070DF
:1018F0008860B80503D5284600F00DFA0CE078059D
:1019000002D544F4005407E0380502D544F480447D
:1019100002E0284600F0FEF9F80316D529684FF4D6
:1019200080308860B80303D5284600F0F6F90CE053
:10193000780302D544F4004407E0380302D544F4A8
:10194000803402E0284600F0E7F9300707D55FEA67
:10195000CB6004D52968102044F40074C860700777
:101960004FF0080707D55FEA0B7004D52868C760F9
:10197000284600F057F9B00706D52868C0688007E8
:1019800002D0284600F050F9700607D55FEACA6019
:1019900004D52968102044F480640861B00607D596
:1019A0005FEA0A7004D528680761284600F05EF9EE
:1019B000F00606D528680069800702D0284600F0A6
:1019C00057F9B00308D55FEAC96005D5296810202A
:1019D0004860284600F06EF9F00307D55FEA097009
:1019E00004D528684760284600F098F9300446D5A9
:1019F0005FEA497040D5F00504D55FEAC87001D0B0
:101A000044F00104B00504D55FEA887001D544F0C4
:101A10000204700504D55FEA487001D544F004045F
:101A2000300529D518F0700F26D008F07000402836
:101A300015D006DC102809D020280AD0302816D16D
:101A40000AE050280ED0602811D10EE044F00804BE
:101A50000DE044F010040AE044F0200407E044F0F4
:101A6000400404E044F0800401E044F480742868F9
:101A7000816921F070018161296804204860002C8F
:101A800005D0686A204368622846FFF789FEBDE8F2
:101A9000F09F70B5040003D094F8200010B104E06A
:101AA000012070BD204600F081F82068016841F0F7
:101AB0000101016000F09EFA0546052604E000F0F1
:101AC00099FA401B0A2811D820684068C007F6D050
:101AD0002068016821F00201016000F08BFA0546E0
:101AE0000BE000F087FA401B0A2806D9606A40F430
:101AF0000030606284F82060D2E720684068800788
:101B0000EFD4207E0128206801683DD021F08001BB
:101B10000160607E01282068016838D021F0400112
:101B20000160A07E01282068016833D021F02001E7
:101B30000160E07E0128206801682ED041F010018C
:101B40000160207F01282068016829D021F0080168
:101B50000160607F01282068016824D021F0040121
:101B60000160D4E902010843D4E904121143084397
:101B70006168491E08432168C86100206062012035
:101B800084F82000002070BD41F08001C0E741F0E2
:101B90004001C5E741F02001CAE721F01001CFE77D
:101BA00041F00801D4E741F00401D9E710B586B04F
:101BB000044614216846FEF707FD1749206888424D
:101BC00027D116480021026842F0007202600068C6
:101BD00000F00070059011481038026842F00802C9
:101BE00002600068022200F0080005900320CDE9A1
:101BF0000210CDE90002092004906946084800F06F
:101C0000FBF800221146142000F062FA142000F0C4
:101C100051FA06B010BD0000006400404038024098
:101C2000000C0240704700001FB504460D480078C4
:101C3000012816D000208DF80000694601A801F0A7
:101C400093FC9DF800000DF1040C00EB40010648E8
:101C500000EB81039CE8070083E80700234601F0BE
:101C600061FC1FBD000000207801002070470000CB
:101C70001FB504460D480078002816D000208DF8C6
:101C80000000694601A801F06FFC9DF800000DF10D
:101C9000040C00EB4001064800EB81039CE80700C0
:101CA00083E80700234601F03DFC1FBD0000002033
:101CB000780100207047000070B5044690F82000BD
:101CC000012804D0606A40F40020606218E002201D
:101CD00084F820002068016821F00101016000F013
:101CE00089F905460EE000BF00F084F9401B0A2880
:101CF00008D9606A40F400306062052084F8200052
:101D0000012070BD20684068C007EDD1606270BDE1
:101D100070477047704770477047704770472DE9AC
:101D2000F0410446876D00F065F9064694F83500E9
:101D30000025022806D08020606584F834500120F8
:101D4000BDE8F0812068016821F01601016020687B
:101D5000416921F080014161206C08B9A06C20B17B
:101D60002068016821F0080101602068016821F005
:101D7000010101600CE000F03DF9801B052807D946
:101D800020206065032084F8350084F83450D7E7BC
:101D900020680068C007EED194F85C103F208840AE
:101DA000B860012084F8350084F834500020C7E77B
:101DB00090F83510022903D0802141650120704739
:101DC000052180F835100068016821F001010160EB
:101DD0000020704770B5044600F00CF90546601C01
:101DE00002D004480078044400F004F9401BA042EB
:101DF000FAD370BD840000202DE9F84FDFF8BCA1B4
:101E00000022012503264FF00F090AF1040BAAF165
:101E1000040E00BF0B6805FA02F42340A34270D100
:101E20000F7907F00307012F01D0022F16D1876821
:101E30004FEA420806FA08FC27EA0C07D1F80CC062
:101E40000CFA08FC4CEA070CC0F808C04768A74326
:101E50000C79C4F3001494403C4344600C79E4438F
:101E6000A4070AD0C4684FEA420C06FA0CF7BC4338
:101E70008F6807FA0CF72743C7600C7904F0030456
:101E8000022C12D1D40800EB840CDCF82040570758
:101E9000FF0E09FA07F824EA0804D1F8108008FABE
:101EA00007F848EA0408CCF8208004684FEA420C9E
:101EB00006FA0CF7BC430F7907F0030707FA0CF793
:101EC000274307604C6814F4403F70D03C4C2768AF
:101ED00047F480472760246822F0030704F4804415
:101EE0000094384C07EB040CDCF8084897074FEADD
:101EF000177809FA08F7BC43334FB84202D10027DC
:101F000024E054E0314FB84201D101271EE0304FA8
:101F1000B84201D1022719E02E4FB84201D1032760
:101F200014E02D4FB84201D104270FE02B4FB842E7
:101F300001D105270AE02A4FB84201D1062705E062
:101F4000284FB84201D1072700E0082707FA08F711
:101F50002743CCF80878DAF800405746D1F804C097
:101F60009C435FEACC2C00D51C433C60DBF800406E
:101F70005F46D1F804C09C435FEA8C2C00D51C431B
:101F80003C60DEF800407746D1F804C09C435FEA2D
:101F90008C3C00D51C433C60084F083F3C68D1F89E
:101FA00004C09C435FEACC3C00D51C433C60521CFF
:101FB000102AFFF42FAFBDE8F88F0000083C014065
:101FC000443802400030014000000240000402405A
:101FD00000080240000C02400010024000140240C1
:101FE00000180240001C02400AB1816170470904D8
:101FF000FBE7000001488068704700008400002073
:102000000248816802781144816070478400002092
:102010000B4810B5016841F400710160016841F49A
:1020200080610160016841F480710160032000F06B
:102030006FF80F2000F006F800F024F8002010BD23
:10204000003C024070B50D4D04464FF47A7128787B
:10205000B1FBF0F00A490968B1FBF0F000F00CFBAD
:1020600048B9102C07D200222146501E00F030F84B
:1020700000206C6070BD012070BD00008400002055
:10208000900000200A4808B5016841F480410160D1
:10209000006800F4804000900548001F016841F08E
:1020A00080510160006800F08050009008BD000081
:1020B00044380240002809DB00F01F020121914052
:1020C0004009800000F1E020C0F8001170470000D6
:1020D000F0B40E4B1B680C46C3F30223C3F1070593
:1020E000042D00D90425191D072901D2002300E081
:1020F000DB1E012606FA05F1491E214099409E404B
:10210000761E16403143F0BC01F011B90CED00E031
:10211000064900F0070208684FF6FF03184040EA3E
:102120000220034A10430860704700000CED00E0F5
:102130000000FA052DE9F0470E46050065D0DFF8EE
:102140001481D8F80000F7B200F00700B04207D2BF
:1021500088F80070D8F8000000F00700B04254D1B1
:1021600028683D4C810712D5400703D5206840F40C
:10217000E05020602878000703D5206840F46040D4
:1021800020602068A96820F0F000084320602878CB
:10219000C0072DD0304968680839012812D00228BC
:1021A00013D0032811D00968890700292DDA216886
:1021B00021F0030101432160FFF71CFF814641F23A
:1021C000883A0EE009688903EFE709688901ECE7BE
:1021D000FFF710FFA0EB0901514502D90320BDE82C
:1021E000F0872068696800F00C00B0EB810FEFD138
:1021F000D8F80010404601F00701B14207D9077036
:10220000006800F00700B04201D00120E7E728781D
:10221000400705D52068E96820F4E05008432060B5
:102220002878000706D52068296920F4604040EA34
:10223000C100206000F038F82168084AC1F303119A
:10224000515CC8400649086006480068FFF7FAFE7E
:102250000020C4E7003C024008380240B8370008BC
:1022600090000020880000200448054900680968A3
:10227000044AC1F38221515CC8407047900000209D
:1022800008380240C8370008044805490068096852
:10229000044AC1F34231515CC840704790000020AD
:1022A00008380240C8370008154810B5006810F01B
:1022B0000C02144813D01449042A0FD0082A0ED156
:1022C0000F4C241F2268236802F03F025B0207D5EF
:1022D0002068C0F38810A0FB010106E0084610BD8D
:1022E0002168C1F38811A1FB00010023FDF7CCFF99
:1022F0002168C1F30141491C4900B0FBF1F010BD58
:10230000083802400024F400001BB7002DE9F84F04
:1023100004006ED02078DFF84C93C007A9F10405C3
:102320004AD009F104000168C1F38101012908D0F4
:102330000068C0F3810002280AD1D9F800004002E9
:1023400006D52868800337D560680028E1D033E0DF
:102350006068B0F5803F10D0B0F5A02F286810D08D
:1023600020F480302860286820F48020286060688D
:10237000A8B1FFF73FFE06460DE0286840F4803024
:10238000F4E740F480202860F7E700BFFFF732FE53
:10239000801B642873D828688003F7D50CE0FFF70A
:1023A00029FE064605E000BFFFF724FE801B6428D7
:1023B000F0D828688003F7D42078DFF8AC82800753
:1023C0004FF0000A3ED5A748001D016811F00C0F20
:1023D00008D00068C0F3810002280BD1D9F80000B2
:1023E000400207D42868800716D5E068012800D18C
:1023F00012E033E1E068B8B10120C8F80000FFF74F
:10240000F9FD064605E000BFFFF7F4FD801B02283A
:10241000C0D828688007F7D52868216920F0F8001F
:1024200040EAC10028600DE0C8F800A0FFF7E2FD17
:10243000064604E0FFF7DEFD801B02281FD828684F
:102440008007F7D42078000722D5864F8748616936
:10245000703771B101210160FFF7CCFD064604E041
:10246000FFF7C8FD801B022809D838688007F7D518
:102470000EE0C0F800A0FFF7BDFD064605E082E0D3
:10248000FFF7B8FD801B02287DD838688007F7D495
:102490002078400768D5DFF8CCB100270BF13C0B62
:1024A000DBF80000C0000BD4DBF8001041F08051D5
:1024B000CBF80010DBF80000012700F080500090FE
:1024C0006B4E3068C00510D4306840F480703060C6
:1024D000FFF790FD009005E0FFF78CFD0099401A92
:1024E000022850D83068C005F6D55E4EA0686C361C
:1024F00001280FD00528306810D020F0010030608E
:10250000306820F004003060A068B8B1FFF772FDB9
:1025100000900FE0306840F00100F4E740F0040064
:102520003060F7E7FFF766FD0099411A41F2883005
:10253000814266D830688007F4D50EE0FFF75AFD77
:10254000009007E0FFF756FD0099411A41F28830EC
:10255000814256D830688007F4D42FB1DBF80010E0
:1025600021F08051CBF80010A069C8B33D49091D86
:102570000968C1F3810102294AD00228504607D0D8
:10258000C8F8600000E03CE0FFF734FD04463BE0A3
:102590004746C8F86000FFF72DFD064605E000BF7E
:1025A000FFF728FD801B02282BD828688001F7D46C
:1025B000D4E907010843A16A2E4A490802EB014108
:1025C000626A41EA8211084394F82C1040EA0161E2
:1025D000C9F8001001203866FFF70CFD044606E03C
:1025E0003EE000BFFFF706FD001B022809D828685F
:1025F0008001F7D534E000BFFFF7FCFC001B022888
:1026000002D90320BDE8F88F28688001F4D427E0C0
:102610000128F7D0D9F80000E26900F48001914266
:102620001CD1226A00F03F01914217D147F6C071D8
:10263000626A0140B1EB821F10D1A26A4FF0FF33F2
:1026400000F4403103EB5202B1EB024F06D194F893
:102650002C1000F07060B0EB016F01D00120D1E7C9
:102660000020CFE70438024000004742800E474276
:10267000007000400000FFFF10B5401EB0F1807FE9
:1026800001D3012010BD4FF0E02460610F216017DD
:1026900000F04DFE0020A06107202061002010BD49
:1026A00070477047F8B5016804460868CA684B6906
:1026B00010F00F0F4FF0000559D003F0010602F49F
:1026C0009077374365D0C10705D0D10503D5616C3C
:1026D00041F001016164410705D5D90703D0616C60
:1026E00041F002016164810705D5D90703D0616C0F
:1026F00041F004016164010707D502F02001314374
:1027000003D0616C41F008016164616C00293AD02A
:10271000800604D5900602D5204600F0ADFC206866
:102720004069616CC0F38010090700D460B3204693
:1027300000F07BFC20684069400621D520681430F9
:1027400050E8001F21F0400140E80012002AF5D1B6
:10275000E06BA8B172490165E06BFFF729FB002827
:1027600011D0E06B016D01B0BDE8F0400847830671
:102770000FD593060DD52046BDE8F84000F07CBC8F
:102780002046FFF78EFFF8BD2046FFF78AFF6564FD
:10279000F8BD266B2023012E7ED1C6067CD5D60639
:1027A0007AD508684868009048694FF002064006EC
:1027B0004DD5E26B106840684FF480770004000C40
:1027C0003AD0A18D814237D9E085D069B8422DD069
:1027D00020680C3050E8001F21F4807140E800129E
:1027E000002AF5D12068143050E8001F21F00101C3
:1027F00040E80012002AF5D12068143050E8001F8C
:1028000021F0400140E80012002AF5D184F842305E
:10281000256320680C3050E8001F21F0100140E8CB
:102820000012002AF5D1E06BFFF779FA6663A08DFC
:10283000E18D401A81B206E0A18D8142A8D1D06914
:10284000B842A5D166632046FFF72AFFF8BDA08DE8
:10285000E18D401A81B2E08D0028F7D00029F5D033
:1028600020680C3050E8002F22F4907240E80027D6
:10287000002FF5D12068143050E8002F22F001021B
:1028800040E80027002FF5D184F842302563206806
:102890000C3050E8002F00E006E022F0100240E883
:1028A0000023002BF3D1CDE705062BD5150629D53E
:1028B00094F841002128C9D1A068B0F5805F01D10A
:1028C0002069B0B1206A411C21622168007848600B
:1028D000E08C401E0004000CE084B7D12068C16881
:1028E00021F08001C1602068C16841F04001C160F1
:1028F000F8BD206A0088C0F308004860206A801C88
:102900002062E5E74006F3D55006F1D5CA682046B7
:1029100022F04002CA6084F8413000F00FF9F8BD9F
:102920001D30000870B5040004D094F84100002563
:1029300010B106E0012070BD84F84050204600F040
:1029400023F8242084F841002068C16821F4005154
:10295000C160204600F0F2FB2068016921F490413B
:1029600001612068416921F02A0141612068C16844
:1029700041F40051C1606564202084F8410084F86E
:1029800042006563002070BDF0B587B00446142195
:102990006846FDF719FE2049206888423AD11F4851
:1029A0000024016841F010010160006800F010008F
:1029B00005901A481438016841F00201016001686D
:1029C00001F002010591016841F001010160006818
:1029D000022500F0010005908020CDE9000502AA43
:1029E0000326072782E8D00069460D48FFF704FA5E
:1029F0002802CDE9000502AA694682E8D00009480C
:102A0000FFF7FAF9002211462520FFF761FB252088
:102A1000FFF750FB07B0F0BD001001404438024002
:102A2000000402400000024090F84230202B01D008
:102A30000220704721B11AB10023036300F004BCE7
:102A40000120704710B50068114988421ED1114C11
:102A50002068E17800BA20F0FF00084300EE100A79
:102A60002079B8EEC00AA42808D000F0C1FD0522E4
:102A7000611DBDE810400848FFF7D6BFBCEEC00A94
:102A8000044910EE100A891E0880F0E710BD00000E
:102A9000001001401A000020600200202DE9F843D8
:102AA000044690F84100984616460D46202802D06C
:102AB0000220BDE8F88385B17EB10020606421204A
:102AC00084F84100FFF796FAA6848146E684A06860
:102AD0002027B0F5805F02D003E00120E9E72069FC
:102AE00010B12E4600250EE000260CE08021204685
:102AF00000F0C5FBA8B9C6B116F8010B2168486003
:102B0000E08C401EE084E08C4B464FF00002CDF894
:102B100000800028EAD14FF04001204600F0AFFBD2
:102B200040B184F841700320C3E735F8020BC0F3CD
:102B30000800E3E784F841700020BAE77047FEE739
:102B40000E4810B50C4901600721416000214FF487
:102B500080328160C0E90312520142610176417600
:102B60008176C17601774177FEF793FF002801D087
:102B700072B6FEE710BD000000640040380200207D
:102B8000F0B587B014216846FDF71EFD20480024EB
:102B9000016841F001010160016801F00101059146
:102BA000016841F002010160016801F00201059134
:102BB000016841F008010160016801F00801059118
:102BC000016841F0800101600068124E00F0800051
:102BD0000590012210213046FFF706FA0E4F012220
:102BE00011463846FFF700FA102000900125CDE984
:102BF0000154694630460394FFF7FEF80095CDE98D
:102C00000154694638460394FFF7F6F807B0F0BD63
:102C1000303802400000024000040240FEE7FEE7B8
:102C200070B515460E460446FFF7E4F90021C4E9E5
:102C3000080196ED010A84ED0A0A96ED050A84ED75
:102C40000B0A94ED030A84ED0C0AD5ED000A94ED0D
:102C50000D0AF4EEC00AF1EE10FA06DCB1EE400AFD
:102C6000F4EEC00AF1EE10FA01D285ED000A70BD53
:102C700030B589B00C4605461C2212496846FDF75E
:102C800071FC94ED000A69468DED060A284600F0B5
:102C90005FF86946284600F017F8F0EE400A6946EA
:102CA000B0EE602A284600F059FB32EE000A07AA6F
:102CB00069468DED070A2846FFF7B2FF9DED070A2A
:102CC00009B030BD9C370008D1ED010A90ED0A0A29
:102CD000D1ED041A30EEC02A30EE800A82EE211ABD
:102CE00060EE211A90ED0B0AB6EE002A01EE820A80
:102CF00081ED050AD0ED001A61EEA00AD0ED011AAF
:102D000021EE800AD0ED021A21EE811A30EE800AFF
:102D100030EE010A70470000C0ED041A80ED052A6C
:102D2000002280EC030A9FED090A80ED060AC0E943
:102D3000082280ED0A0A80ED0B0A00F13402C2EC91
:102D4000032A80F8401080ED114A7047000000000F
:102D500070B505460C46D5E908010026084303D1A5
:102D6000FFF748F9C5E90806FFF744F9D5E9082354
:102D7000801A66EB030100F094FC00EE100ADFED10
:102D80002B0A20EE200A84ED040A95ED030AD4ED07
:102D9000060A30EE600A84ED010A95F84000012829
:102DA0001DD1F0EE000A20EE201AD5ED110AB4EE86
:102DB000E01AF1EE10FA06DCF1EE601AB4EEE11A58
:102DC000F1EE10FA0BD2B5EEC00AF1EE10FA02DD08
:102DD00030EE600A01E030EE200A84ED010AF0EEE8
:102DE000400A95ED0F0AF4EEC00AF1EE10FA06DC87
:102DF000B1EE400AF4EEC00AF1EE10FA03D29FEDF4
:102E00000C0A84ED010AD4ED010A95ED0E0AF4EEE8
:102E1000C00AF1EE10FA06DCB1EE400AF4EEC00A88
:102E2000F1EE10FA00D2267070BD0000BD37863575
:102E3000000000007047000000B585B0DFED0E0A0D
:102E40000E48CDED010A00F0CFFB002102A800F0F2
:102E50008BFB029801A900EE100A08488DED010ACB
:102E6000FFF706FF8DED000A684600F009F89DEDBA
:102E7000000A05B000BD000000000000F0010020C5
:102E80001FB5B0F90010DFED170A00EE101A164951
:102E9000CDED000AB8EEC00AB0F90000B1F900208B
:102EA000904203D00880114800F09EFB002101A849
:102EB00000F05AFB0298694600B200EE100A0B4877
:102EC000B8EEC00A8DED000AFFF7D2FEBDEEC00AD3
:102ED00000231A4610EE100A194600B200F0A6FAB6
:102EE0001FBD00000000000008000020A801002015
:102EF00010B51D4C00212DED028B221D9FED188A6F
:102F0000DFED188AB7EE002A92EC030AB0EE484AC9
:102F1000F0EE483AB0EE483AF0EE682AF7EE001AC2
:102F20001248FFF7F9FE1148B7EE004A0121F2EE10
:102F3000043AB7EE003AF0EE682AB0EE482AF0EE16
:102F4000481AB3EE091AF2EE0E0AB2EE040A48303D
:102F5000FFF7E2FE00202080BDEC028B10BD0000D8
:102F6000000000000000804608000020A8010020AA
:102F70007047FFF745B8000030B593B03021684680
:102F8000FDF722FB14210CA8FDF71EFB1D480025B0
:102F9000016841F080510160006800F0805011909C
:102FA0001948016841F4804101600068022400F47E
:102FB0008040119001200090000401908001CDE933
:102FC000064006200890A820CDE9090404200B90B3
:102FD0006846FFF79BF908B172B6FEE70CA90F200F
:102FE00081E831004FF4A0500F904FF480501090C2
:102FF00005210CA8FFF79EF8002801D072B6FEE765
:1030000013B030BD403802400070004002480168F3
:1030100041F470010160704788ED00E010B5806BED
:103020000021C185FFF73DFB10BD01680C3151E85F
:10303000002F22F4907241E80023002BF5D10168A3
:10304000143151E8002F22F0010241E80023002B47
:10305000F5D1016B012909D101680C3151E8002F2C
:1030600022F0100241E80023002BF5D1202180F846
:10307000421000210163704708B590F842102229E0
:1030800001D0022008BD82684FF480539A4201D1DA
:10309000016921B1816A9A421BD04AB10AE00268F3
:1030A000816A5268C2F308020A80816A891C08E0BA
:1030B000026972B10268526802F07F020A70816A86
:1030C000491C8162C18D491E0904090CC18503D0C8
:1030D0001BE002685268F1E70168CA6822F020022A
:1030E000CA600168CA6822F48072CA6001684A69CD
:1030F00022F001024A61202180F842100021416340
:10310000026B012A03D0FFF79DFC002008BD01637C
:1031100001680C3151E8002F22F0100241E8002331
:10312000002BF5D101680A68D20602D50A68496801
:103130000091818DFFF7B4FAE7E7000070B504460F
:1031400000680169E26821F440511143016121697D
:10315000A068E26908436169114308432168CA68AD
:1031600049F20C639A430243CA6020684169A2692C
:1031700021F440711143416131492068884202D0F5
:103180003049884202D1FFF77FF801E0FFF76CF881
:10319000E2690023192164253226B2F5004F6268E6
:1031A00028D0A0FB0101930F9200FDF76DF80146B6
:1031B000B0FBF5F06FF01802504301EB800006EB16
:1031C0000010B0FBF5F000F0F002B1FBF5F002EBFF
:1031D0000012B1FBF5F06FF01803584301EB8000CB
:1031E00006EB0010B0FBF5F000F00F002168104472
:1031F000886070BDA0FB010192185B41FDF744F8A7
:103200000146B0FBF5F00201B1FBF5F06FF01803D9
:10321000584301EB800006EBC000B0FBF5F000F076
:10322000F80002EB4002B1FBF5F0584301EB8000DF
:1032300006EBC000B0FBF5F000F00700D6E7000099
:10324000001001400014014081628285C285002186
:103250004164222180F84210016921B10168CA68E5
:1032600042F48072CA6001684A6942F001024A6110
:103270000068C16841F02001C160002070472DE95D
:10328000F843984617460D460446089E24E0701CF5
:1032900022D0FEF7AFFEA0EB0800B0421AD8CEB1A4
:1032A0002068C168490717D5802D15D0402D13D04F
:1032B0000168C94309070FD40168002540680090E0
:1032C0002046FFF7B2FE0820606484F840500120D9
:1032D000BDE8F8830320FBE72068006835EA0000BA
:1032E00004D00020B842D2D00020F1E70120F9E755
:1032F0000148FFF7D7B9000060020020FEE703B4E1
:1033000001984100009850EAC12018BF04204A0DDE
:1033100018BF40F0010040F2FF72B2EB515F08BFEE
:1033200040F00200012808BF052002B070470907DD
:10333000090E002804DB00F1E02080F8001470473B
:1033400000F00F0000F1E02080F8141D70473038C5
:103350000A2801D20120704700207047D0ED030AEF
:1033600090ED0C0AF5EEC00AF1EE10FA01D180EDF5
:10337000030AD0ED030AD1ED041A70EEC00A90EDF5
:10338000040A20EE801A81EE210A90ED051A00EE63
:10339000810A7047FEF73CFEFFF7EEFDFFF7F0FBFA
:1033A000FFF7CEFB1E481D490C2201604FF4E131AE
:1033B000416000218160C160C0E904128161C16186
:1033C000FFF7B0FA08B172B6FEE715482838FEF7E5
:1033D00073FC012210211348FEF706FE104800215D
:1033E000283800F045F805220F490D48FFF71CFB6F
:1033F000FFF77EFD4FF0FF340B48FDF794F882B2E3
:10340000234609490648FFF749FBB5EE000AFFF7D6
:1034100013FD6420FEF7DEFCEEE700000010014023
:1034200060020020001C02401F0000203EB5002466
:1034300000940194040A8DF800408DF80100080AF8
:103440008DF80200100A8DF804008DF80520180A86
:103450008DF803108DF8060004498DF8073002AB93
:103460006A4601F1B000FEF7B6F83EBD94000020B8
:103470002DE9F041074629480D1E4FF00106017065
:103480004FF0000401D0466000E04460202239463D
:103490002348FDF767F897F82010214880F820109E
:1034A000796A41621E4B0020983B0822C0EBC001A4
:1034B00000F2012743F8217003EB8101401C4C60AE
:1034C000C1E903428C600428F0DB15484FF4007119
:1034D000B038C0E90014C0E9034284600475883044
:1034E0004901446106620461C0E90646C0E900146E
:1034F0004FF6C071C0E902140DB1102100E00221A5
:103500000748FEF756F8064905482839FEF7C2F87D
:10351000BDE8F0410248FEF7CFBB000000000020EC
:10352000440100200FB583B0039800F08FF841EC00
:10353000100BBDF910009DF81420BDF812108DE895
:10354000070053EC102B03A10648FCF715FF07B04A
:1035500000BD0000252E32662C25642C25642C2508
:10356000640A00001F0000202DE9FC411B4E1C4F87
:103570000D468046002400BFC4EBC40006EB800269
:1035800016486B4698307968FEF70BF920B1641C39
:10359000042CF1DBBDE8FC812C70BDF80000DFEDF0
:1035A000110A40BA00EE100A0C48B8EE400AC030CA
:1035B000034680EE201A80ED001ABDF8021049BAC9
:1035C0008180BDF8041049BAC1809DF806100172CF
:1035D0000ECBC8E90012C8F80830DBE7AC000020C9
:1035E0000000002000F8FF4580ED030A704700004E
:1035F0000749A12806D0A22807D0A32801D181ED30
:10360000030A704781ED010A704781ED020A704795
:103610000800002010B500290AD00878002807D03B
:1036200005487844FDF7AEFB002801D0002010BD0E
:103630000248784410BD0000620200005A020000F7
:103640000808A0F500114FEA3101704743004FEA26
:10365000D30C4FEA3C0C43401FBF40070CF16051B4
:1036600013F0FE4F70471CF0006F03D100200CF0E8
:10367000004170470CF0004343EA507010B540EA37
:10368000CC0000F03EF800BF000000924FEA0001BD
:10369000FFF7D6BF4FF000414FF00000A1F5002129
:1036A00070474FF07E5209E011F0004204D54042CD
:1036B000C1F1000138BF491E42F07E520B0002F1F9
:1036C000706212BF20235FEA00017047B1FA81FCEB
:1036D000A3EB0C0301FA0CF120FA03FC02EBC3523A
:1036E000C3F1200341EA0C0110FA03FC5CEA416CCF
:1036F00042EB112018BF5FF0806C28BF20F0010062
:1037000070470EF1020E2EF0030E5EF8044B2442B9
:1037100004D44FEA4102B2F17F4F11D84FEA40037F
:10372000B3F17F4F0CD80ED14FEAD07CB2F17F4F6E
:103730000CEB4C0C0CF1020C08BF4CEBD17C04E000
:103740004FF0080C01E04FEAD17C0CEB4C0324FA5B
:1037500003F404F00704B4F1040C06D20EEB840C5D
:10376000BDE810404CF0010C6047DFE80CF00708A2
:1037700002024FF00040A0F5800010BD0846420054
:1037800018BFD2F1807288BF00F0004010BD4FF02A
:103790004070E1EE100A7047FDF772B801000000BA
:1037A0000000000000000000000000000000000019
:1037B0000000000000000000000000000000000009
:1037C00001020304060708090000000001020304C7
:1037D00002400000000000A00000000005400000C2
:1037E000000000C8000000000C4000000000409CE9
:1037F00000000000194000000020BCBE00000000D6
:1038000034400000BFC91B8E00000004B54000001A
:10381000504BCFD06607E2CF010000006C410000A2
:103820003E8251AADFEEA73401000000D942000019
:10383000DCB5A0E23A301F97FFFFFFFFB445000060
:10384000FD25A0C8E9A3C14FFFFFFFFFFF3F000018
:103850000000008000000000FF3F0000000000802A
:1038600000000000A03800080000002094000000C4
:10387000C4010008343900089400002074080000D6
:10388000E00100081C00000043000000F8FFFFFFFB
:103890000C0000000E0000000F0000002E000000D1
:1038A00000000000000000000000000000002041B7
:1038B000000020410000A0410A0000000000003686
:1038C00036000000000000000000000000000000C2
:1038D00000000000000000000000000000000000E8
:1038E00000000000000000000000000000000000D8
:1038F00000000000000000000000000000000000C8
:1039000000000000000000000000000000000000B7
:1039100000000000000000000000000000000000A7
:103920000000000001000000100000000000000086
:043930000024F4007B
:040000050800018965
:00000001FF
