:020000040800F2
:10000000D007002029020008FF1400081D14000872
:10001000FD14000883040008B91600080000000061
:1000200000000000000000000000000003150008B0
:1000300091040008000000000115000805150008E3
:10004000430200084302000843020008430200087C
:10005000430200084302000843020008430200086C
:10006000430200084302000843020008430200085C
:10007000430200084302000843020008430200084C
:10008000430200084302000843020008430200083C
:1000900085040008430200084302000843020008E8
:1000A000430200084302000843020008430200081C
:1000B000430200084302000843020008430200080C
:1000C00043020008430200084302000843020008FC
:1000D00043020008430200084302000843020008EC
:1000E00043020008430200084302000843020008DC
:1000F00043020008430200084302000843020008CC
:1001000043020008430200084302000843020008BB
:1001100043020008430200084302000843020008AB
:10012000430200084302000843020008430200089B
:10013000430200084302000843020008430200088B
:10014000430200084302000843020008430200087B
:10015000430200084302000843020008430200086B
:10016000430200084302000843020008430200085B
:100170004302000843020008430200080000000098
:10018000430200084302000800F002F800F03CF8C7
:100190000AA090E8000C82448344AAF10107DA45E2
:1001A00001D100F031F8AFF2090EBAE80F0013F0F8
:1001B000010F18BFFB1A43F001031847E4160000B3
:1001C00004170000103A24BF78C878C1FAD8520743
:1001D00024BF30C830C144BF04680C6070470000C1
:1001E0000023002400250026103A28BF78C1FBD840
:1001F000520728BF30C148BF0B6070471FB501F0E0
:100200003DFB1FBD10B510BD00F006F91146FFF70C
:10021000F5FF01F063FA00F024F903B4FFF7F2FFF1
:1002200003BC00F027F9000009488047094800474F
:10023000FEE7FEE7FEE7FEE7FEE7FEE7FEE7FEE796
:10024000FEE7FEE704480549054A064B70470000F3
:100250009D15000889010008D0010020D00700206A
:10026000D0030020D003002053EA020C00F0698084
:100270002DE9F04B4FF00006002B1FBFB3FA83F5BA
:1002800003FA05F424FA05F65E4012BF1643B2FAEB
:1002900082F502FA05F4C5F120051EBF22FA05FC1D
:1002A00044EA0C04203556EA044C4FEA144418BFC3
:1002B000641C4FF000084FF00009904271EB030CF2
:1002C00039D3002919BFB1FA81F701FA07F6B0FA5C
:1002D00080F700FA07F6C7F120071EBF20FA07FCD7
:1002E00046EA0C062037B6FBF4FCA7EB0507103FE7
:1002F00007F01F0BCBF120060CFA0BFB2CFA06F6CD
:1003000044BFB3460026202FA4BF5E464FF0000B2B
:100310005BEA060C08BF4FF0010B19EB0B09ABFBB6
:10032000027C48EB0608C01B06FB02CC0BFB03CC8F
:1003300071EB0C01C1E70B46024641464846BDE859
:10034000F08B13B54FF000004FF00001AFF30080C9
:10035000BDE81C40704710B5203AC0F00B80B1E8F2
:100360001850203AA0E81850B1E81850A0E81850EA
:10037000BFF4F5AF5FEA027C24BFB1E81850A0E8F3
:10038000185044BF18C918C0BDE810405FEA827C0D
:1003900024BF51F8043B40F8043B08BF7047D20724
:1003A00028BF31F8023B48BF11F8012B28BF20F8C5
:1003B000023B48BF00F8012B70474FF0000200B528
:1003C000134694469646203922BFA0E80C50A0E878
:1003D0000C50B1F12001BFF4F7AF090728BFA0E826
:1003E0000C5048BF0CC05DF804EB890028BF40F8F2
:1003F000042B08BF704748BF20F8022B11F0804F34
:1004000018BF00F8012B7047704770477047000015
:1004100000487047700100207546FFF7F9FFAE46AF
:1004200005006946534620F00700854618B020B500
:10043000FFF708FFBDE820404FF000064FF000072F
:100440004FF000084FF0000B21F00701AC46ACE87C
:10045000C009ACE8C009ACE8C009ACE8C0098D46E9
:10046000704710B50446AFF300802046BDE8104049
:10047000FFF7D3BE01491820ABBEFEE726000200FD
:100480007047FEE7014800F0FCB8000000010020C2
:10049000704790F82020012A07D0022A05D0416A2F
:1004A00041F48021416201207047006842690A439B
:1004B000426100207047F0B590F820500468A468AD
:1004C000012D05D0022D03D0416A41F480214DE079
:1004D00014F0406F01D1E50045D5C4F30164012556
:1004E000A5401D608D684FF4C0739DB1CE68354343
:1004F0004E6845EAC605066803EB0417F5514FF44C
:10050000C275076805EB04150E697E51097D012946
:1005100005D009E00E88CD6845EA4655EBE701684D
:100520004E5946F480764E511179D2F805504FF469
:10053000C67641EA0521056806EB0416A951117833
:10054000D2F801204FF4C47541EA0221026805EB9C
:1005500004155151006803EB0411425842F00102A6
:1005600042500020F0BD416A41F400114162012077
:10057000F0BD000010B590F82020012A07D0022A13
:1005800005D0416A41F480214162012010BD3B4801
:10059000D0F8002242F00102C0F80022D0F8002278
:1005A00022F47C52C0F80022D0F800224B6A42EAC2
:1005B0000322C0F800220A7D02F01F0301229A40A4
:1005C000D0F81C329343C0F81C32CB69B3B9D0F8D1
:1005D0000C329343C0F80C328C894B6864F31F4390
:1005E0004C6900EBC404C4F840320C890B6864F316
:1005F0001F434C6900EBC404C4F84432CB69012B9F
:1006000016D1D0F80C321343C0F80C320C884B686A
:1006100064F31F434C6900EBC404C4F840320C89F6
:10062000CB6864F31F434C6900EBC404C4F8443244
:100630008B69002BD0F804320ED01343C0F804327B
:100640000B69002BD0F8143208D01343C0F81432D1
:10065000096A012904D008E09343EFE79343F5E7E3
:10066000D0F81C121143C0F81C12D0F8001221F06F
:100670000101C0F80012002010BD0000006400401D
:1006800070472DE9F05F0546006800244669D0F800
:1006900004908768D0F80CB0D0F810A0D0F818807B
:1006A000F10748D0F90714D001218160B80703D5BC
:1006B000284600F0E0F90CE0780702D54FF400641A
:1006C00007E0380702D54FF4805402E0284600F0D6
:1006D000D1F9F80516D529684FF480708860B805FF
:1006E00003D5284600F0C9F90CE0780502D544F49A
:1006F000005407E0380502D544F4804402E028465F
:1007000000F0BAF9F80316D529684FF480308860F4
:10071000B80303D5284600F0B2F90CE0780302D5FF
:1007200044F4004407E0380302D544F4803402E086
:10073000284600F0A3F9300707D55FEACB6004D55F
:100740002968102044F40074C86070074FF008074F
:1007500007D55FEA0B7004D52868C760284600F00B
:1007600057F9B00706D52868C068800702D0284628
:1007700000F04FF9700607D55FEACA6004D5296812
:10078000102044F480640861B00607D55FEA0A705F
:1007900004D528680761284600F03CF9F00606D524
:1007A00028680069800702D0284600F034F9B003B9
:1007B00008D55FEAC96005D5296810204860284639
:1007C00000F02AF9F00307D55FEA097004D528681C
:1007D0004760284600F054F9300446D55FEA497076
:1007E00040D5F00504D55FEAC87001D044F001049B
:1007F000B00504D55FEA887001D544F002047005A5
:1008000004D55FEA487001D544F00404300529D5C9
:1008100018F0700F26D008F07000402815D006DCC4
:10082000102809D020280AD0302816D10AE05028F4
:100830000ED0602811D10EE044F008040DE044F021
:1008400010040AE044F0200407E044F0400404E00F
:1008500044F0800401E044F480742868816921F048
:1008600070018161296804204860002C05D0686A05
:10087000204368622846FFF703FFBDE8F09F70B58C
:10088000040003D094F8200010B104E0012070BDF2
:10089000204600F081F82068016841F00101016004
:1008A00000F000FA0546052604E000F0FBF9401BC5
:1008B0000A2811D820684068C007F6D0206801686F
:1008C00021F00201016000F0EDF905460BE000F0B7
:1008D000E9F9401B0A2806D9606A40F400306062DA
:1008E00084F82060D2E7206840688007EFD4207E3B
:1008F0000128206801683DD021F080010160607E00
:1009000001282068016838D021F040010160A07EF4
:1009100001282068016833D021F020010160E07EC9
:100920000128206801682ED041F010010160207F6D
:1009300001282068016829D021F008010160607F4A
:1009400001282068016824D021F004010160D4E965
:1009500002010843D4E90412114308436168491EA7
:1009600008432168C86100206062012084F82000EB
:10097000002070BD41F08001C0E741F04001C5E7B3
:1009800041F02001CAE721F01001CFE741F0080152
:10099000D4E741F00401D9E710B586B0044614212C
:1009A0006846FFF70AFD17492068884227D1164894
:1009B0000021026842F000720260006800F00070DE
:1009C000059011481038026842F008020260006881
:1009D000022200F0080005900320CDE90210CDE9C5
:1009E0000002092004906946084800F05DF80022E2
:1009F0001146142000F0C4F9142000F0B3F906B039
:100A000010BD00000064004040380240000C02406D
:100A100070477047704770477047000070B50446D4
:100A200090F82000012804D0606A40F40020606241
:100A300018E0022084F820002068016821F00101FC
:100A4000016000F02FF905460EE000BF00F02AF922
:100A5000401B0A2808D9606A40F400306062052013
:100A600084F82000012070BD20684068C007EDD1E7
:100A7000606270BD7047704770477047704770473D
:100A80007047000070B5044600F00CF90546601C84
:100A900002D004480078044400F004F9401BA0424E
:100AA000FAD370BD0C0000202DE9F84FDFF8BCA18F
:100AB0000022012503264FF00F090AF1040BAAF1C9
:100AC000040E00BF0B6805FA02F42340A34270D164
:100AD0000F7907F00307012F01D0022F16D1876885
:100AE0004FEA420806FA08FC27EA0C07D1F80CC0C6
:100AF0000CFA08FC4CEA070CC0F808C04768A7438A
:100B00000C79C4F3001494403C4344600C79E443F2
:100B1000A4070AD0C4684FEA420C06FA0CF7BC439B
:100B20008F6807FA0CF72743C7600C7904F00304B9
:100B3000022C12D1D40800EB840CDCF820405707BB
:100B4000FF0E09FA07F824EA0804D1F8108008FA21
:100B500007F848EA0408CCF8208004684FEA420C01
:100B600006FA0CF7BC430F7907F0030707FA0CF7F6
:100B7000274307604C6814F4403F70D03C4C276812
:100B800047F480472760246822F0030704F4804478
:100B90000094384C07EB040CDCF8084897074FEA40
:100BA000177809FA08F7BC43334FB84202D100273F
:100BB00024E054E0314FB84201D101271EE0304F0C
:100BC000B84201D1022719E02E4FB84201D10327C4
:100BD00014E02D4FB84201D104270FE02B4FB8424B
:100BE00001D105270AE02A4FB84201D1062705E0C6
:100BF000284FB84201D1072700E0082707FA08F775
:100C00002743CCF80878DAF800405746D1F804C0FA
:100C10009C435FEACC2C00D51C433C60DBF80040D1
:100C20005F46D1F804C09C435FEA8C2C00D51C437E
:100C30003C60DEF800407746D1F804C09C435FEA90
:100C40008C3C00D51C433C60084F083F3C68D1F801
:100C500004C09C435FEACC3C00D51C433C60521C62
:100C6000102AFFF42FAFBDE8F88F0000083C0140C8
:100C700044380240003001400000024000040240BD
:100C800000080240000C0240001002400014024024
:100C900000180240001C02400AB18161704709043B
:100CA000FBE7000001488068704700000C0000204E
:100CB0000248816802781144816070470C0000206E
:100CC0000B4810B5016841F400710160016841F4FE
:100CD00080610160016841F480710160032000F0CF
:100CE0006FF80F2000F006F800F024F8002010BD87
:100CF000003C024070B50D4D04464FF47A712878DF
:100D0000B1FBF0F00A490968B1FBF0F000F00CFB10
:100D100048B9102C07D200222146501E00F030F8AE
:100D200000206C6070BD012070BD00000C00002030
:100D3000180000200A4808B5016841F480410160AC
:100D4000006800F4804000900548001F016841F0F1
:100D500080510160006800F08050009008BD0000E4
:100D600044380240002809DB00F01F0201219140B5
:100D70004009800000F1E020C0F800117047000039
:100D8000F0B40E4B1B680C46C3F30223C3F10705F6
:100D9000042D00D90425191D072901D2002300E0E4
:100DA000DB1E012606FA05F1491E214099409E40AE
:100DB000761E16403143F0BC00F07FBC0CED00E025
:100DC000064900F0070208684FF6FF03184040EAA2
:100DD0000220034A10430860704700000CED00E059
:100DE0000000FA052DE9F0470E46050065D0DFF852
:100DF0001481D8F80000F7B200F00700B04207D223
:100E000088F80070D8F8000000F00700B04254D114
:100E100028683D4C810712D5400703D5206840F46F
:100E2000E05020602878000703D5206840F4604037
:100E300020602068A96820F0F0000843206028782E
:100E4000C0072DD0304968680839012812D002281F
:100E500013D0032811D00968890700292DDA2168E9
:100E600021F0030101432160FFF71CFF814641F29D
:100E7000883A0EE009688903EFE709688901ECE721
:100E8000FFF710FFA0EB0901514502D90320BDE88F
:100E9000F0872068696800F00C00B0EB810FEFD19B
:100EA000D8F80010404601F00701B14207D9077099
:100EB000006800F00700B04201D00120E7E7287881
:100EC000400705D52068E96820F4E0500843206019
:100ED0002878000706D52068296920F4604040EA98
:100EE000C100206000F038F82168084AC1F30311FE
:100EF000515CC8400649086006480068FFF7FAFEE2
:100F00000020C4E7003C0240083802408618000870
:100F100018000020100000200448054900680968F6
:100F2000044AC1F38221515CC84070471800002078
:100F30000838024096180008044805490068096806
:100F4000044AC1F34231515CC84070471800002088
:100F50000838024096180008154810B5006810F0CF
:100F60000C02144813D01449042A0FD0082A0ED1B9
:100F70000F4C241F2268236802F03F025B0207D552
:100F80002068C0F38810A0FB010106E0084610BDF0
:100F90002168C1F38811A1FB00010023FFF764F968
:100FA0002168C1F30141491C4900B0FBF1F010BDBB
:100FB000083802400024F400001BB7002DE9F84F68
:100FC00004006ED02078DFF84C93C007A9F1040527
:100FD0004AD009F104000168C1F38101012908D058
:100FE0000068C0F3810002280AD1D9F8000040024D
:100FF00006D52868800337D560680028E1D033E043
:101000006068B0F5803F10D0B0F5A02F286810D0F0
:1010100020F480302860286820F4802028606068F0
:10102000A8B1FFF73FFE06460DE0286840F4803087
:10103000F4E740F480202860F7E700BFFFF732FEB6
:10104000801B642873D828688003F7D50CE0FFF76D
:1010500029FE064605E000BFFFF724FE801B64283A
:10106000F0D828688003F7D42078DFF8AC828007B6
:101070004FF0000A3ED5A748001D016811F00C0F83
:1010800008D00068C0F3810002280BD1D9F8000015
:10109000400207D42868800716D5E068012800D1EF
:1010A00012E033E1E068B8B10120C8F80000FFF7B2
:1010B000F9FD064605E000BFFFF7F4FD801B02289E
:1010C000C0D828688007F7D52868216920F0F80083
:1010D00040EAC10028600DE0C8F800A0FFF7E2FD7B
:1010E000064604E0FFF7DEFD801B02281FD82868B3
:1010F0008007F7D42078000722D5864F874861699A
:10110000703771B101210160FFF7CCFD064604E0A4
:10111000FFF7C8FD801B022809D838688007F7D57B
:101120000EE0C0F800A0FFF7BDFD064605E082E036
:10113000FFF7B8FD801B02287DD838688007F7D4F8
:101140002078400768D5DFF8CCB100270BF13C0BC5
:10115000DBF80000C0000BD4DBF8001041F0805138
:10116000CBF80010DBF80000012700F08050009061
:101170006B4E3068C00510D4306840F48070306029
:10118000FFF790FD009005E0FFF78CFD0099401AF5
:10119000022850D83068C005F6D55E4EA0686C367F
:1011A00001280FD00528306810D020F001003060F1
:1011B000306820F004003060A068B8B1FFF772FD1D
:1011C00000900FE0306840F00100F4E740F00400C8
:1011D0003060F7E7FFF766FD0099411A41F2883069
:1011E000814266D830688007F4D50EE0FFF75AFDDB
:1011F000009007E0FFF756FD0099411A41F2883050
:10120000814256D830688007F4D42FB1DBF8001043
:1012100021F08051CBF80010A069C8B33D49091DE9
:101220000968C1F3810102294AD00228504607D03B
:10123000C8F8600000E03CE0FFF734FD04463BE006
:101240004746C8F86000FFF72DFD064605E000BFE1
:10125000FFF728FD801B02282BD828688001F7D4CF
:10126000D4E907010843A16A2E4A490802EB01416B
:10127000626A41EA8211084394F82C1040EA016145
:10128000C9F8001001203866FFF70CFD044606E09F
:101290003EE000BFFFF706FD001B022809D82868C2
:1012A0008001F7D534E000BFFFF7FCFC001B0228EB
:1012B00002D90320BDE8F88F28688001F4D427E024
:1012C0000128F7D0D9F80000E26900F480019142CA
:1012D0001CD1226A00F03F01914217D147F6C0713C
:1012E000626A0140B1EB821F10D1A26A4FF0FF3356
:1012F00000F4403103EB5202B1EB024F06D194F8F7
:101300002C1000F07060B0EB016F01D00120D1E72C
:101310000020CFE70438024000004742800E4742D9
:10132000007000400000FFFF10B5401EB0F1807F4C
:1013300001D3012010BD4FF0E02460610F21601740
:1013400000F0BBF90020A06107202061002010BD43
:1013500070B5040004D094F84100002510B106E0F7
:10136000012070BD84F84050204600F023F824206E
:1013700084F841002068C16821F40051C160204612
:1013800000F014F92068016921F49041016120689E
:10139000416921F02A0141612068C16841F400518E
:1013A000C1606564202084F8410084F842006563D0
:1013B000002070BD10B586B0044614216846FEF7C3
:1013C000FCFF13492068884220D11248002102689E
:1013D00042F400320260006800F4003005900D48CD
:1013E0001038026842F008020260006800F008004D
:1013F0000590602000900220CDE9010103200390B8
:101400000720049069460448FFF74EFB06B010BD64
:101410000044004040380240000C0240FEE700005B
:101420000E4810B50C4901600721416000214FF4BE
:1014300080328160C0E90312520142610176417637
:101440008176C17601774177FFF719FA002801D03C
:1014500072B6FEE710BD00000064004000010020ED
:10146000F0B587B014216846FEF7A7FF2048002496
:10147000016841F001010160016801F0010105917D
:10148000016841F008010160016801F0080105915F
:10149000016841F080010160016801F0800105915F
:1014A000016841F0020101600068124E00F0020084
:1014B0000590012210213046FFF7EEFB0E4F01226E
:1014C00011463846FFF7E8FB102000900125CDE9D2
:1014D0000154694630460394FFF7E6FA0095CDE9DA
:1014E0000154694638460394FFF7DEFA07B0F0BDB1
:1014F000303802400000024000040240FEE7FEE7F0
:1015000070477047FFF7D4BB30B593B030216846C1
:10151000FEF753FF14210CA8FEF74FFF1D480025CE
:10152000016841F080510160006800F08050119026
:101530001948016841F4804101600068022400F408
:101540008040119001200090000401908001CDE9BD
:10155000064006200890A820CDE9090404200B903D
:101560006846FFF72BFD08B172B6FEE70CA90F2005
:1015700081E831004FF4A0500F904FF4805010904C
:1015800005210CA8FFF72EFC002801D072B6FEE75B
:1015900013B030BD4038024000700040024801687E
:1015A00041F470010160704788ED00E070B50446B9
:1015B00000680169E26821F4405111430161216929
:1015C000A068E26908436169114308432168CA6859
:1015D00049F20C639A430243CA6020684169A269D8
:1015E00021F440711143416131492068884202D0A1
:1015F0003049884202D1FFF79FFC01E0FFF78CFCE5
:10160000E2690023192164253226B2F5004F626891
:1016100028D0A0FB0101930F9200FEF725FE0146A2
:10162000B0FBF5F06FF01802504301EB800006EBC1
:101630000010B0FBF5F000F0F002B1FBF5F002EBAA
:101640000012B1FBF5F06FF01803584301EB800076
:1016500006EB0010B0FBF5F000F00F00216810441D
:10166000886070BDA0FB010192185B41FEF7FCFD94
:101670000146B0FBF5F00201B1FBF5F06FF0180385
:10168000584301EB800006EBC000B0FBF5F000F022
:10169000F80002EB4002B1FBF5F0584301EB80008B
:1016A00006EBC000B0FBF5F000F00700D6E7000045
:1016B0000010014000140140FEE70907090E002850
:1016C00004DB00F1E02080F80014704700F00F0008
:1016D00000F1E02080F8141D70470000FFF7F0FAD9
:1016E000FFF712FFFFF7BCFEFFF79AFE22482149E1
:1016F0000C2201604FF4E131416000218160C16042
:10170000C0E904128161C161FFF722FE08B172B61F
:10171000FEE719482838FFF781F901221021174800
:10172000FFF7BAFA14480021283800F04DF84FF4BA
:101730007A76134C75420AE03230002380B2208062
:101740001A46194600F01EF83220FFF79BF9208850
:10175000B042F1D30AE03238002380B220801A462A
:10176000194600F00FF83220FFF78CF92088A842C4
:10177000EDDDF0E70044004028010020001C02409D
:10178000080000203EB5002400940194040A8DF85E
:1017900000408DF80100080A8DF80200100A8DF84B
:1017A00004008DF80520180A8DF803108DF8060046
:1017B00004498DF8073002AB6A4601F1B000FEF72C
:1017C0007AFE3EBD1C0000202DE9F0410746294865
:1017D0000D1E4FF0010601704FF0000401D044606F
:1017E00000E04660202239462348FEF7B4FD97F812
:1017F0002010214880F82010796A41621E4B002099
:10180000983B0822C0EBC00100F2012743F8217089
:1018100003EB8101401C4C60C1E903428C60042849
:10182000F0DB15484FF40071B038C0E90014C0E98E
:101830000342846004758830490144610662046192
:10184000C0E90646C0E9001447F6E071C0E9021499
:101850000DB1022100E010210748FEF71AFE0649EB
:1018600005482839FEF786FEBDE8F0410248FFF73B
:10187000D5B8000000000020CC0000204FF04070E0
:10188000E1EE100A704700000000000000000102B5
:101890000304060708090000000001020304000019
:1018A000C0180008000000201C000000C40100084F
:1018B000DC1800081C000020B4070000E00100084C
:1018C0000000000000000000000000000100000017
:0C18D00010000000000000000024F400E4
:040000050800018965
:00000001FF
